:0400000087EF04F092
:0800080065EF00F000000000AC
:100010000000000000000000046ED8CF05F0E0CF23
:1000200006F00001E9CF0CF0EACF07F0E1CF08F0CD
:10003000E2CF09F0D9CF0AF0DACF0BF0F3CF12F00C
:10004000F4CF13F0FACF14F0F5CF15F0F6CF16F089
:10005000F7CF17F000C00EF001C00FF002C010F093
:1000600003C011F09DAA38EF00F09EBA1EEF01F018
:10007000A3AA3EEF00F0A4BA0CEF01F00EC000F00E
:100080000FC001F010C002F011C003F00CC0E9FF76
:1000900007C0EAFF078E08C0E1FF09C0E2FF0AC0FF
:1000A000D9FF0BC0DAFF12C0F3FF13C0F4FF14C076
:1000B000FAFF15C0F5FF16C0F6FF17C0F7FF045092
:1000C00006C0E0FF05C0D8FF10000001E9CF1EF018
:1000D000EACF19F0E1CF1AF0E2CF1BF0D9CF1CF034
:1000E000DACF1DF0F3CF24F0F4CF25F0FACF26F0CD
:1000F000F5CF27F0F6CF28F0F7CF29F000C020F099
:1001000001C021F002C022F003C023F09DA28CEFB9
:1001100000F09EB2AEEF00F020C000F021C001F070
:1001200022C002F023C003F01EC0E9FF19C0EAFF9D
:10013000198E1AC0E1FF1BC0E2FF1CC0D9FF1DC011
:10014000DAFF24C0F3FF25C0F4FF26C0FAFF27C062
:10015000F5FF28C0F6FF29C0F7FF110001017E2B33
:100160007E51640802E17E6B4788B2A108D0483C0A
:1001700003D0493C01D003D0482AD8B4492A9380FF
:10018000B29381B0B283B2B31ED07FA11CD0362A05
:10019000D8B4372A7FA311D0B29149C033F048C0F8
:1001A00032F03350355C08E303E13450325C04E252
:1001B00033C035F032C034F07F937FB304D0496A46
:1001C000486AB2817F837F91B2B37F8147A214D006
:1001D000479233C039F032C038F035C03BF034C0FC
:1001E0003AF037C03DF036C03CF0336A326A3568C9
:1001F0003468376A366A47849E9200018CEF00F0BB
:10020000A4AAFED79CCF31F0AACF01F031A202D030
:100210009C989C880DEF01F0F3D701C0AFF1A49A30
:100220003EEF00F09EAAFED7ACCF31F0AFCF01F089
:1002300031A202D0AC98AC881FEF01F0F3D701C017
:10024000AFF147A601D04AD001014A51FC0803E1B1
:10025000000144D00101AF510D0815E0AF510A086B
:1002600012E0036A4A514C0FE96E000E0320EA6E59
:10027000AFC1EFFF4A2B036A4A514C0FE96E000EE3
:100280000320EA6EEF6A7FB521D081C180F182C17F
:1002900081F183C182F184C183F185C184F1AFC151
:1002A00085F18051240811E1815147080EE1825106
:1002B00050080BE18351480808E18451440805E1E6
:1002C0008551540802E147824B6B07D0AF510D08AE
:1002D00003E0AF510A0801E1478600019E9A3EEF14
:1002E00000F02320766563746F7257696E6458540A
:1002F000432028257329206F6E205854430D0A008F
:1003000032382D4A616E2D3231002320676F742000
:10031000747269676765722073656E74656E636574
:100320000D0A0000232066696E6973686564207297
:100330006563656976696E6720747269676765725F
:100340002073656E74656E6365206F722074696DCD
:10035000656F75740D0A0000232063757272656EF7
:10036000742E6C6976655F6167653D25750D0A00C1
:1003700023207B636F756E743D256C752C20706532
:1003800072696F643D256C752C206D696E5F7065B8
:1003900072696F643D256C757D0D0A0023207B69B1
:1003A0006E7075743D256C752C207665727469636A
:1003B000616C3D256C752C2077696E645F76616E8B
:1003C000653D256C757D0D0A000023206E6D65610D
:1003D0005F726177207B7472696767657265645FBD
:1003E0006167653D257520272573277D0D0A00006F
:1003F000010EEA6E900EE96EEF5011E00A0E016EEA
:10040000BF0E006E0400002EFDD7012EF9D75E0E40
:10041000006E002EFED700D00400EF2EEFD71200A2
:10042000C150C00B0309C16EC18EC280C18CC28293
:10043000C2B2FED7C19CF80E0F01486FC28CC29E9B
:100440004951E00B1F09496FF80E486F7F0E496F45
:10045000000E0609CA6E310ECB6E0E0E0101906FB2
:100460000001C6DF4792479447964798336A326A3D
:1004700035683468376A366A4C6A01014A6B4B69E1
:100480000001EEEF04F00900F6CF8EF1F7CF8FF107
:10049000F550A4A8FED7A96E8EC1F6FF8FC1F7FF55
:1004A00001018D2F01D002D00001EDD70001120013
:1004B0000900F5520DE0F6CF8DF1F7CF8EF1F55032
:1004C000A4A8FED7A96E8DC1F6FF8EC1F7FFF0D7A5
:1004D0001200D8B204D0010EEA6EAA0EE96E006ACC
:1004E000016A026A036A0101AA6BAB6BAC6BAD6B6C
:1004F000A951A811A711A6112CE0200EAE6FD8901B
:10050000A237A337A437A537AA37AB37AC37AD37F7
:10051000A951AD5D08E1A851AC5D05E1A751AB5D06
:1005200002E1A651AA5D0FE3A651AA5FA751D8A088
:10053000A73DAB5FA851D8A0A83DAC5FA951D8A0FA
:10054000A93DAD5FD8800036013602360336AE2FA6
:10055000D6D7AAC1EFFFABC1ECFFACC1ECFFADC178
:10056000ECFF000108EF03F0D89001017C35036A2D
:100570005C0FE96E010E0320EA6E93C1ECFFED52B1
:1005800092C1EFFF7C2B7C510F0801E27C6B7D5107
:100590000F0801E37D2B9B6B9A6B996B986B9C6B9F
:1005A0007D519C5D14E2D8909C35036A5C0FE96E26
:1005B000010E0320EA6EECCF03F0ED52EF509827C6
:1005C00003509923000E9A239B239C2BE9D7D890A4
:1005D0007D31006E016A026A036A005098259E6FA1
:1005E000015099219F6F02509A21A06F03509B21C7
:1005F000A16FD892A56FA0C1A4F19FC1A3F19EC124
:10060000A2F1A96BA86BA76B7DC1A6F1000161D710
:1006100003C097F102C096F101C095F100C094F1BA
:10062000010194C101F095C102F000011200000E19
:10063000016EC250C30B0110C26E010E0101906F1A
:100640000001D6DE01018D6B8D510F0818E3C282C7
:10065000C2B2FED7C4CF02F0C3CF01F0C4CF91F134
:10066000C3CF90F1C4CF93F1C3CF92F100017CDFEF
:1006700002C08FF101C08EF101018D2BE5D78FC132
:100680003FF08EC13EF0040E016EC250C30B01104C
:10069000C26E010E906F0001ABDE01018D6B8D51BA
:1006A0000F0818E3C282C2B2FED7C4CF02F0C3CF94
:1006B00001F0C4CF91F1C3CF90F1C4CF93F1C3CF78
:1006C00092F1000151DF02C08FF101C08EF10101F2
:1006D0008D2BE5D78FC143F08EC142F0080E016E1D
:1006E000C250C30B0110C26E010E906F000180DE7C
:1006F00001018D6B8D510F0818E3C282C2B2FED783
:10070000C4CF02F0C3CF01F0C4CF91F1C3CF90F1B9
:10071000C4CF93F1C3CF92F1000126DF02C08FF165
:1007200001C08EF101018D2BE5D78FC141F08EC143
:1007300040F0000120EF05F001019051016A8F5D4A
:1007400003E28FC100F00CD0006A080E916F8F3762
:1007500000369051005CD8B0006E0136912FF7D76B
:100760000001120001508DC18FF1640E0101906FE4
:100770000001E2DF00C08DF10150300E08E10101FF
:100780008EA30ED08EB70CD08EB9200E04D00101EE
:100790008E978E998E8101260150A4A8FED7A96E4E
:1007A0008DC18FF10A0E906F0001C6DF00C08DF180
:1007B0000150300E08E101018EB70BD08EA109D097
:1007C0008EB9200E000101260150A4A8FED7A96E03
:1007D0000101300E8D278D51A4A8FED7A96E00010E
:1007E0001200EACF95F1E9CF94F101018E39F009B9
:1007F000906F9027E20F916F320F936F8E510F0B16
:10080000912791279327E90F926F922792278D398D
:100810000F0B9227932792379337931F93378D515E
:100820000F0B93279037070E8F6F0A0E92079327AF
:10083000FDE391079227FDE390079127FDE38F07E2
:100840009027FDE3010EEA6E8F0EE96E070E9415F8
:10085000949DE926000EEA22E950930803E1EA2C70
:1008600001D0948DEF50006E08E194BD06D094B98C
:100870000CD094B702D0200E03D094879499300EF8
:1008800000260050A4A8FED7A96EEE5094ADE4D780
:1008900000011200EF5210E0EACF8EF1E9CF8DF1A6
:1008A000EF50A4A8FED7A96E8EC1EAFF8DC1E9FF63
:1008B000E92AD8B4EA2AEED7D5EF05F001014B3D7D
:1008C00001D001D04B2B463C01D001D0462A3C52EE
:1008D00002E13D5203E0939A8A8A02D0939A8A9A5F
:1008E0004150020805E2FF0A0AE140500E0807E302
:1008F0004150030807E303E14050010803E39396E6
:100900008A8602D093968A960001E5EF05F0F86A90
:100910009F829F9AA59AD08E078E0E01550EA76EC4
:10092000AA0EA76EFF910C0EF66F050ED16F550E35
:10093000A76EAA0EA76EFF81400E9B6ED36AD3509E
:10094000316A7E86A00EB06E010E7F6EA60EAD6E71
:10095000900EAC6E7C868A0EAB6E000E7D6EA60E7F
:10096000A86E900E9C6E0101876B866BFF0E0F01C7
:10097000486FC29CC29E4951E00B1F09496F070E88
:10098000B46E01017F917F937F9507D002002B0009
:100990000033414C000641800000000EF86E090E45
:1009A000F76E8C0EF66E0900F550006E000A13E02B
:1009B0000900F550016EE8BE05D03F0BEA6E090054
:1009C000F5CFE9FF01BC090001AC0900F5CFEEFF4E
:1009D000004EE9D7F9D7F86A000122D501018C6BE6
:1009E0008B6B8CC18AF18BC189F1939A8A9A939807
:1009F0008A9893968A96E20EF66E020EF76E110EA4
:100A00008D6F000140DD000EF66E030EF76E50DDB7
:100A1000F50EF66E020EF76E0A0E01018D6F0001E3
:100A200032DD9D829D8AC00EF2120101886B0400A6
:100A30008B2BD8B48C2B47A409D047940001F7D551
:100A40000A0EF66E030EF76E33DD010147A6B8D02D
:100A50004796240EF66E030EF76E000129DD580E40
:100A6000F66E030EF76E130E01018D6F00010BDDA4
:100A700046C08DF11B0E01018E6F000173DE0D0E5D
:100A8000A4A8FED7A96E0A0EA4A8FED7A96E700E60
:100A9000F66E030EF76E090E01018D6F0001F3DC97
:100AA000100EE96E3DC08EF13CC08DF19ADE7C0ED9
:100AB000F66E030EF76E090E01018D6F0001E3DC87
:100AC000100EE96E39C08EF138C08DF18ADE880EC5
:100AD000F66E030EF76E0D0E01018D6F0001D3DC73
:100AE000100EE96E3BC08EF13AC08DF17ADE980EA1
:100AF000F66E030EF76E030E01018D6F0001C3DC6D
:100B00009C0EF66E030EF76E090E01018D6F00014B
:100B1000BADC100EE96E3FC08EF13EC08DF161DE91
:100B2000A80EF66E030EF76E0B0E01018D6F00011D
:100B3000AADC100EE96E41C08EF140C08DF151DE8D
:100B4000B60EF66E030EF76E0C0E01018D6F0001EE
:100B50009ADC100EE96E43C08EF142C08DF141DE89
:100B6000C50EF66E030EF76E030E01018D6F0001C8
:100B70008ADCCA0EF66E030EF76E1A0E01018D6F37
:100B8000000181DC4BC18DF11B0E01018E6F000154
:100B9000E9DD200EA4A8FED7A96E270EA4A8FED7D3
:100BA000A96EEA6A4C0EE96E75D6EA0EF66E030E71
:100BB000F76E040E01018D6F000165DC466A0101CC
:100BC00047A804D04798000179D6010130D7FFD754
:083FF80000F41DFFFFF9CFF1F9
:00000001FF
;PIC18F24J11
;CRC=EB35  CREATED="28-Jan-21 17:24"
