:0400000048EF04F0D1
:0800080065EF00F000000000AC
:100010000000000000000000046ED8CF05F0E0CF23
:1000200006F00001E9CF0CF0EACF07F0E1CF08F0CD
:10003000E2CF09F0D9CF0AF0DACF0BF0F3CF12F00C
:10004000F4CF13F0FACF14F0F5CF15F0F6CF16F089
:10005000F7CF17F000C00EF001C00FF002C010F093
:1000600003C011F09DAA38EF00F09EBA27EF01F00F
:10007000A3AA3EEF00F0A4BA15EF01F00EC000F005
:100080000FC001F010C002F011C003F00CC0E9FF76
:1000900007C0EAFF078E08C0E1FF09C0E2FF0AC0FF
:1000A000D9FF0BC0DAFF12C0F3FF13C0F4FF14C076
:1000B000FAFF15C0F5FF16C0F6FF17C0F7FF045092
:1000C00006C0E0FF05C0D8FF10000001E9CF1EF018
:1000D000EACF19F0E1CF1AF0E2CF1BF0D9CF1CF034
:1000E000DACF1DF0F3CF24F0F4CF25F0FACF26F0CD
:1000F000F5CF27F0F6CF28F0F7CF29F000C020F099
:1001000001C021F002C022F003C023F09DA28CEFB9
:1001100000F09EB2AEEF00F020C000F021C001F070
:1001200022C002F023C003F01EC0E9FF19C0EAFF9D
:10013000198E1AC0E1FF1BC0E2FF1CC0D9FF1DC011
:10014000DAFF24C0F3FF25C0F4FF26C0FAFF27C062
:10015000F5FF28C0F6FF29C0F7FF110002016D2B43
:100160006D51640804E16D6B010147890201A1A191
:100170000CD00101483D05D0493D03D0020105D016
:100180000101482BD8B4492B02019380A19381B07F
:10019000A183A1B320D06EA11ED0362AD8B4372AAD
:1001A0006EA311D0A19149C133F048C132F0335050
:1001B000355C08E303E13450325C04E233C035F0CF
:1001C00032C034F06E936EB306D00101496B486BB8
:1001D0000201A1816E836E91A1B36E81010147A3DB
:1001E00014D0479333C039F032C038F035C03BF0FB
:1001F00034C03AF037C03DF036C03CF0336A326A62
:1002000035683468376A366A47859E9200018CEFFC
:1002100000F0A4AAFED79CCF31F0AACF01F031A202
:1002200002D09C989C8816EF01F0F3D701C09DF294
:10023000A49A3EEF00F09EAAFED7ACCF31F0AFCF2C
:1002400001F031A202D0AC98AC8828EF01F0F3D7CE
:1002500001C09DF202019D510D0818E09D510A0850
:1002600015E07551FB0812E3036A75514C0FE96EF6
:10027000010E0320EA6E9DC2EFFF752B036A7551D4
:100280004C0FE96E010E0320EA6EEF6A6EB526D0C0
:1002900070C26FF271C270F272C271F273C272F206
:1002A00074C273F29DC274F26F51240816E170514A
:1002B000470813E17151500810E1725148080DE1EF
:1002C000735144080AE17451540807E1010147835E
:1002D000476A02016E8593988A7831D09D510D0846
:1002E00003E09D510A082BE19D6B75519D5D19E25C
:1002F000480E9D25016E036AD8B0032A03C09FF201
:10030000036A9D514C0FE96E010E0320EA6EEFCF98
:10031000A0F29FC2EAFF01C0E9FFA0C2EFFF9D2B40
:10032000E4D7480E9D25E96EEA6AD8B0EA2AEF6A5A
:1003300075C246F10101478702016E95756B9E9A61
:1003400000013EEF00F02320766563746F725769F9
:100350006E645854432028257329206F6E2058540A
:10036000430D0A00312D4665622D32310000020E28
:10037000EA6E7C0EE96EEF5011E00A0E016EBF0EC0
:10038000006E0400002EFDD7012EF9D75E0E006E20
:10039000002EFED700D00400EF2EEFD71200C15080
:1003A000C00B0309C16EC18EC280C18CC282C2B2B1
:1003B000FED7C19CF80E0F01486FC28CC29E4951F6
:1003C000E00B1F09496FF80E486F7F0E496F000E52
:1003D0000609CA6E310ECB6E0E0E02017C6F000153
:1003E000C6DF01014793479547974799336A326AB9
:1003F00035683468376A366A4C6B02014A6B476865
:10040000486A0101466B456A446A0001AFEF04F097
:100410000900F6CF7AF2F7CF7BF2F550A4A8FED709
:10042000A96E7AC2F6FF7BC2F7FF0201792F01D0D5
:1004300002D00001EDD7000112000900F5520DE0D5
:10044000F6CF79F2F7CF7AF2F550A4A8FED7A96ECD
:1004500079C2F6FF7AC2F7FFF0D7C3EF04F0D8B243
:1004600004D0020EEA6E960EE96E006A016A026A14
:10047000036A0201966B976B986B996B9551941177
:10048000931192112CE0200E9A6FD8908E378F37EF
:100490009037913796379737983799379551995DB7
:1004A00008E19451985D05E19351975D02E1925105
:1004B000965D0FE39251965F9351D8A0933D975F5D
:1004C0009451D8A0943D985F9551D8A0953D995FDF
:1004D000D88000360136023603369A2FD6D796C218
:1004E000EFFF97C2ECFF98C2ECFF99C2ECFF00014E
:1004F000CEEF02F0D89002016B35036A4B0FE96E24
:10050000020E0320EA6E7FC2ECFFED527EC2EFFFC7
:100510006B2B6B510F0801E26B6B6C510F0801E301
:100520006C2B876B866B856B846B886B6C51885DDD
:1005300014E2D8908835036A4B0FE96E020E03204F
:10054000EA6EECCF03F0ED52EF5084270350852381
:10055000000E86238723882BE9D7D8906C31006E54
:10056000016A026A036A005084258A6F015085215E
:100570008B6F025086218C6F035087218D6FD8922C
:10058000916F8CC290F28BC28FF28AC28EF2956B01
:10059000946B936B6CC292F2000161D703C083F23B
:1005A00002C082F201C081F200C080F2020180C26A
:1005B00001F081C202F000011200000E016EC25073
:1005C000C30B0110C26E010E02017C6F0001CFDE71
:1005D0000201796B79510F0818E3C282C2B2FED7CB
:1005E000C4CF02F0C3CF01F0C4CF7DF2C3CF7CF201
:1005F000C4CF7FF2C3CF7EF200017CDF02C07BF26A
:1006000001C07AF20201792BE5D77BC23FF07AC2B2
:100610003EF0040E016EC250C30B0110C26E010EFB
:100620007C6F0001A4DE0201796B79510F0818E399
:10063000C282C2B2FED7C4CF02F0C3CF01F0C4CF92
:100640007DF2C3CF7CF2C4CF7FF2C3CF7EF2000134
:1006500051DF02C07BF201C07AF20201792BE5D7AB
:100660007BC243F07AC242F0080E016EC250C30B47
:100670000110C26E010E7C6F000179DE0201796B00
:1006800079510F0818E3C282C2B2FED7C4CF02F07C
:10069000C3CF01F0C4CF7DF2C3CF7CF2C4CF7FF2D1
:1006A000C3CF7EF2000126DF02C07BF201C07AF2E6
:1006B0000201792BE5D77BC241F07AC240F00001FC
:1006C000E0EF04F0020199519907000A24E098C272
:1006D000EAFF9751972BD8B4982BE96EEF50951BF2
:1006E0009A6B9A51070816E39551010B006E036A45
:1006F000005003100AE0D89096319C6F9531010AA2
:10070000956F9C51A00A966F03D0D890963395337D
:100710009A2BE7D7D8D795C201F096C202F0000114
:100720001200A4A8FED7A96E1200170E01014625DB
:10073000020F0201906F916BD8B0912B230E796F4D
:10074000520E7A6F040E7B6F0D0E7C6F7D69250E45
:100750007E6F91C27FF290C280F245C081F244C0A8
:1007600082F239C083F238C084F23BC085F23AC0CD
:1007700086F23DC087F23CC088F23FC089F23EC09D
:100780008AF241C08BF240C08CF243C08DF242C06D
:100790008EF247C08FF296699569020E986F7A0EB5
:1007A000976F160E996F00018DDF02C093F201C0A2
:1007B00092F293C296F292C295F20201986B480EA1
:1007C000976F46C199F200017DDF02C093F201C02C
:1007D00092F20201946B945116080FE3036A94514C
:1007E000790FE96E020E0320EA6EEFCF95F2955174
:1007F000000197DF0201942BEED7946B0101465163
:100800000201945D0EE2480E9425E96EEA6AD8B0C2
:10081000EA2AEFCF95F29551000183DF0201942B74
:10082000EDD793C295F2955100017BDF92C295F20C
:1008300002019551000175DF442AD8B4452AE6EF3C
:1008400004F0473C01D001D0472A463C01D001D0FA
:10085000462A3C5202E13D5203E0939A8A8A02D032
:10086000939A8A9A4150020805E2FF0A0AE1405031
:100870000E0807E34150030807E303E14050010875
:1008800003E393968A8602D093968A96EDEF04F05E
:10089000F86A9F829F9AA59AD08E078E0E01550EF8
:1008A000A76EAA0EA76EFF910C0EF66F050ED16F04
:1008B000550EA76EAA0EA76EFF81400E9B6ED36ADF
:1008C000D350316A7E86A00EB06E010E7F6EA60EEA
:1008D000AD6E900EAC6E7C868A0EAB6E000E7D6E99
:1008E000A60EA86E900E9C6E0201776B766BFF0EC3
:1008F0000F01486FC29CC29E4951E00B1F09496F0E
:10090000070EB46E02016E916E936E9507D00200D1
:100910002B000023424B0007426F0000000EF86ED0
:10092000090EF76E0E0EF66E0900F550006E000A05
:1009300013E00900F550016EE8BE05D03F0BEA6EEA
:100940000900F5CFE9FF01BC090001AC0900F5CFB2
:10095000EEFF004EE9D7F9D7F86A000120D5939A47
:100960008A9A93988A9893968A96460EF66E030E04
:10097000F76E110E0201796F00014ADD640EF66E0A
:10098000030EF76E5AD5590EF66E030EF76E0A0E69
:100990000201796F00013CDD9D829D8AC00EF2123A
:1009A0000201786B04004650770804E20101478396
:1009B00047870201010147A504D047950001FDD5F5
:1009C000010147A705D047970001AFD6466A01014C
:1009D00047A904D04799000134D701010201E2D7A9
:0209E000FFD73F
:083FF80000F41DFFFFF9CFF1F9
:00000001FF
;PIC18F24J11
;CRC=3597  CREATED="01-Feb-21 15:50"
