:040000009DEF06F07A
:08000800046ED8CF05F0E0CF33
:1000100006F00001E9CF0CF0EACF07F0E1CF08F0DD
:10002000E2CF09F0D9CF0AF0DACF0BF0F3CF12F01C
:10003000F4CF13F0FACF14F0F5CF15F0F6CF16F099
:10004000F7CF17F000C00EF001C00FF002C010F0A3
:1000500003C011F09DA230EF00F09EB279EF00F0E6
:100060009DAA36EF00F09EBACFEF00F0A3AA3CEFB6
:1000700000F0A4BAB5EF00F00EC000F00FC001F020
:1000800010C002F011C003F00CC0E9FF07C0EAFF86
:10009000078E08C0E1FF09C0E2FF0AC0D9FF0BC00C
:1000A000DAFF12C0F3FF13C0F4FF14C0FAFF15C04B
:1000B000F5FF16C0F6FF17C0F7FF045006C0E0FFBB
:1000C00005C0D8FF1000F76AD60FF66E000EF722B3
:1000D0000900F5501200475048445400F76AEC0FED
:1000E000F66E000EF7220900F55012004750524DEF
:1000F00043000101582B5851640802E1586B2185D7
:100100008BA108D0223D03D0233D01D003D0222B68
:10011000D8B4232B93808B9381B08B838BB31ED069
:1001200059A11CD0242AD8B4252A59A311D08B91C7
:1001300023C121F022C120F02150235C08E303E118
:100140002250205C04E221C023F020C022F0599309
:1001500059B304D0236B226B8B81598359918BB394
:1001600059819E9200013CEF00F0A4AAFED7AACFCD
:100170008BF10101A49A00013CEF00F001018E51C6
:100180009003F3CF01F0F4CF00F09103F350002679
:100190008F519003F3500020026E00011200010104
:1001A00059B5A9D15DC15CF15EC15DF15FC15EF180
:1001B00060C15FF161C160F19EAAFED7AFCF61F16E
:1001C0005C51240801E0EDD15A6B5A510108D8A0C6
:1001D00091D18F6B5AC18EF1916B760E906F0001A9
:1001E000CDDF02C003F001500C0F01018C6F000E37
:1001F00002208D6F020E8C27000E8D23200E8C2581
:10020000E96E000E8D21EA6E5D51EF5CD8A470D1CD
:100210008F6B5AC18EF1916B760E906F0001AEDF3D
:1002200001500C0F01018E6F000E02208F6F020E25
:100230008E27000E8F23010E8E25016E000E8F215A
:10024000036E0150200FE96E000E0320EA6E5E512E
:10025000EF5CD8A44DD18F6B5AC18EF1916B760EA5
:10026000906F00018BDF01500C0F01018E6F000EAB
:1002700002208F6F020E8E27000E8F23020E8E2516
:10028000016E000E8F21036E0150200FE96E000EEB
:100290000320EA6E5F51EF5CD8A42AD18F6B5AC15C
:1002A0008EF1916B760E906F000168DF01500C0F9C
:1002B00001018E6F000E02208F6F020E8E27000E3E
:1002C0008F23030E8E25016E000E8F21036E0150C9
:1002D000200FE96E000E0320EA6E6051EF5CD8A497
:1002E00007D18F6B5AC18EF1916B760E906F000122
:1002F00045DF01500C0F01018E6F000E02208F6F41
:10030000020E8E27000E8F23040E8E25016E000E26
:100310008F21036E0150200FE96E000E0320EA6E5C
:100320006151EF5CD8A4E4D08F6B5AC18EF1916B10
:10033000760E906F000122DF01500C0F01018C6FCF
:10034000000E02208D6F010E8C25016E000E8D2196
:10035000036E0150200FE96E000E0320EA6EEF6A73
:1003600093988A788F6B5AC18EF1916B760E906F4D
:10037000000104DF01500C0F01018C6F000E022000
:100380008D6F080E8C27000E8D23200E8C25E96EB4
:10039000000E8D21EA6E5DC1EFFF8F6B5AC18EF1A9
:1003A000916B760E906F0001E9DE01500C0F010198
:1003B0008C6F000E02208D6F080E8C27000E8D238F
:1003C000010E8C25016E000E8D21036E0150200F51
:1003D000E96E000E0320EA6E5EC1EFFF8F6B5AC11B
:1003E0008EF1916B760E906F0001C8DE01500C0FFC
:1003F00001018C6F000E02208D6F080E8C27000EFD
:100400008D23020E8C25016E000E8D21036E01508E
:10041000200FE96E000E0320EA6E5FC1EFFF8F6BC5
:100420005AC18EF1916B760E906F0001A7DE0150DC
:100430000C0F01018C6F000E02208D6F080E8C27AF
:10044000000E8D23030E8C25016E000E8D21036E90
:100450000150200FE96E000E0320EA6E60C1EFFF2D
:100460008F6B5AC18EF1916B760E906F000186DE14
:1004700001500C0F01018C6F000E02208D6F080ED1
:100480008C27000E8D23040E8C25016E000E8D210D
:10049000036E0150200FE96E000E0320EA6E61C169
:1004A000EFFF8F6B5AC18EF1916B760E906F00014A
:1004B00065DE01500C0F01018C6F000E02208D6F64
:1004C000080E8C27000E8D23050E8C25016E000E64
:1004D0008D21036E0150200FE96E000E0320EA6E9D
:1004E000EF6A050E5B6F5A5301E12181598502D0F5
:1004F0005A2B6BD656D09EAAFED7AFCF8BF18B511D
:100500000D0803E08B510A0805E159955A5301E1A2
:10051000218347D05B516B0843E38F6B5AC18EF147
:10052000916B760E906F000129DE01500C0F0101D6
:100530008C6F000E02208D6F080E8C27000E8D230D
:100540005B518C25016E000E8D21036E0150200F32
:10055000E96E000E0320EA6E8BC1EFFF5B2B8F6B01
:100560005AC18EF1916B760E906F000107DE01503B
:100570000C0F01018C6F000E02208D6F080E8C276E
:10058000000E8D235B518C25016E000E8D21036EB4
:100590000150200FE96E000E0320EA6EEF6A01D0D1
:1005A00059959E9A00013CEF00F023207665637414
:1005B0006F7257696E645854432028257329206F41
:1005C0006E205854430D0A0032372D4A616E2D3289
:1005D0003100232074696D656F75742077616974CB
:1005E000696E6720666F7220747269676765720D45
:1005F0000A002320676F7420747269676765722030
:1006000073656E74656E63650D0A0000232066696C
:100610006E697368656420726563656976696E6783
:1006200020747269676765722073656E74656E63A6
:1006300065206F722074696D656F75740D0A000016
:10064000232063757272656E742E6C6976655F61C6
:1006500067653D25750D0A0023207B636F756E74F9
:100660003D256C752C20706572696F643D256C7535
:100670002C206D696E5F706572696F643D256C75C5
:100680007D0D0A0023207B696E7075743D256C75A5
:100690002C20766572746963616C3D256C752C2025
:1006A00077696E645F76616E653D256C757D0D0AB8
:1006B0000000010EEA6E6C0EE96EEF5011E0020EC2
:1006C000016EBF0E006E0400002EFDD7012EF9D77B
:1006D000960E006E002EFED700D00400EF2EEFD74E
:1006E0001200C150C00B0309C16EC18EC280C18C03
:1006F000C282C2B2FED7C19CF80E0F01486FC28CF5
:10070000C29E4951E00B1F09496FF80E486F7F0EDA
:10071000496F000E0509CA6E310ECB6E0E0E010137
:100720006C6F0001C6DF0101219121932195216A9F
:10073000206A23682268256A246A696B6951010866
:1007400064E3196AF2BE198EF29E8F6B69C18EF155
:10075000916B760E906F000111DD19BEF28E015083
:100760000C0F01016A6F000E02206B6F010E6A25EB
:10077000016E000E6B21036E0150200FE96E000E1A
:100780000320EA6EEF68196AF2BE198EF29E8F6B33
:1007900069C18EF1916B760E906F0001EFDC19BE8E
:1007A000F28E01500C0F01016A6F000E02206B6F78
:1007B000020E6A27000E6B23200E6A25E96E000EDA
:1007C0006B21EA6EEF6A196AF2BE198EF29E8F6B88
:1007D00069C18EF1916B760E906F0001CFDC19BE6E
:1007E000F28E01500C0F01016A6F000E02206B6F38
:1007F000080E6A27000E6B23200E6A25E96E000E94
:100800006B21EA6EEF6A692B99D70D0E2C6EEA6A9E
:100810002E0EE96E000E000156DC0A000900F550AC
:10082000EE6E0009FBE1070EA26FEA6AA40EE96E04
:10083000000E54DC0A000900F550EE6E0009FBE1E1
:10084000FAEF06F00900F6CF6AF1F7CF6BF1F55039
:10085000A4A8FED7A96E6AC1F6FF6BC1F7FF01011C
:10086000692F01D002D00001EDD70001120009006C
:10087000F5520DE0F6CF69F1F7CF6AF1F550A4A873
:10088000FED7A96E69C1F6FF6AC1F7FFF0D7120063
:10089000D8B204D0010EEA6E860EE96E006A016AD3
:1008A000026A036A0101866B876B886B896B8551CD
:1008B0008411831182112CE0200E8A6FD8907E372C
:1008C0007F37803781378637873788378937855133
:1008D000895D08E18451885D05E18351875D02E10E
:1008E0008251865D0FE38251865F8351D8A0833D9C
:1008F000875F8451D8A0843D885F8551D8A0853D0D
:10090000895FD88000360136023603368A2FD6D763
:1009100086C1EFFF87C1ECFF88C1ECFF89C1ECFF06
:100920000001E7EF04F0D89001015635036A360F55
:10093000E96E010E0320EA6E6FC1ECFFED526EC14D
:10094000EFFF562B56510F0801E2566B57510F0817
:1009500001E3572B776B766B756B746B786B575124
:10096000785D14E2D8907835036A360FE96E010E8F
:100970000320EA6EECCF03F0ED52EF5074270350E2
:100980007523000E76237723782BE9D7D89057313B
:10099000006E016A026A036A005074257A6F015082
:1009A00075217B6F025076217C6F035077217D6F1C
:1009B000D892816F7CC180F17BC17FF17AC17EF1D9
:1009C000856B846B836B57C182F1000161D703C0D3
:1009D00073F102C072F101C071F100C070F1010148
:1009E00070C101F071C102F000011200000E016E31
:1009F000C250C30B0110C26E010E01016C6F0001E9
:100A000058DE0101696B69510F0818E3C282C2B256
:100A1000FED7C4CF02F0C3CF01F0C4CF6DF1C3CF76
:100A20006CF1C4CF6FF1C3CF6EF100017CDF02C067
:100A30006BF101C06AF10101692BE5D76BC119F1B6
:100A40006AC118F1040E016EC250C30B0110C26ED0
:100A5000010E6C6F00012DDE0101696B69510F08F9
:100A600018E3C282C2B2FED7C4CF02F0C3CF01F0F6
:100A7000C4CF6DF1C3CF6CF1C4CF6FF1C3CF6EF1B2
:100A8000000151DF02C06BF101C06AF10101692B65
:100A9000E5D76BC11DF16AC11CF1080E016EC25091
:100AA000C30B0110C26E010E6C6F000102DE01016A
:100AB000696B69510F0818E3C282C2B2FED7C4CF76
:100AC00002F0C3CF01F0C4CF6DF1C3CF6CF1C4CF3E
:100AD0006FF1C3CF6EF1000126DF02C06BF101C0E0
:100AE0006AF10101692BE5D76BC11BF16AC11AF1EB
:100AF000000150EF07F001016C51016A6B5D03E2E8
:100B00006BC100F00CD0006A080E6D6F6B370036B9
:100B10006C51005CD8B0006E01366D2FF7D7000124
:100B20001200015069C16BF1640E01016C6F00018C
:100B3000E2DF00C069F10150300E08E101016AA353
:100B40000ED06AB70CD06AB9200E04D001016A97A2
:100B50006A996A8101260150A4A8FED7A96E69C1CD
:100B60006BF10A0E6C6F0001C6DF00C069F1015025
:100B7000300E08E101016AB70BD06AA109D06AB949
:100B8000200E000101260150A4A8FED7A96E010184
:100B9000300E69276951A4A8FED7A96E00016FEF36
:100BA00007F0EACF71F1E9CF70F101016A39F0097C
:100BB0006C6F6C27E20F6D6F320F6F6F6A510F0B06
:100BC0006D276D276F27E90F6E6F6E276E276939C6
:100BD0000F0B6E276F276E376F376F1F6F37695197
:100BE0000F0B6F276C37070E6B6F0A0E6E076F27A0
:100BF000FDE36D076E27FDE36C076D27FDE36B07D3
:100C00006C27FDE3010EEA6E6B0EE96E070E7015A0
:100C1000709DE926000EEA22E9506F0803E1EA2CF4
:100C200001D0708DEF50006E08E170BD06D070B934
:100C30000CD070B702D0200E03D070877099300EA0
:100C400000260050A4A8FED7A96EEE5070ADE4D7E0
:100C5000000112000101696B695101084AE3196A38
:100C6000F2BE198EF29E8F6B69C18EF1916B760E7A
:100C7000906F0001BEEC00F019BEF28E01500C0F17
:100C800001016A6F000E02206B6F010E6A25016E72
:100C9000000E6B21036E0150200FE96E000E032041
:100CA000EA6EEF3C01D023D0196AF2BE198EF29E93
:100CB0008F6B69C18EF1916B760E906F0001BEEC67
:100CC00000F019BEF28E01500C0F01016A6F000E88
:100CD00002206B6F010E6A25016E000E6B21036E00
:100CE0000150200FE96E000E0320EA6EEF2A692BF7
:100CF000B3D7203D01D001D0202B2A5202E12B5244
:100D000003E0939A8A8A02D0939A8A9A1B51020826
:100D100005E2FF0A0AE11A510E0807E31B51030816
:100D200007E303E11A51010803E393968A8602D090
:100D300093968A960001F0EF07F0F86AD09E078E2E
:100D40000E01550EA76EAA0EA76EFF910C0EF66F40
:100D5000050ED16F550EA76EAA0EA76EFF817E9667
:100D6000190EB06EA60EAD6E900EAC6E7C86220E85
:100D7000AB6E000E7D6EA60EA86E900E9C6E0101ED
:100D8000636B626BFF0E0F01486FC29CC29E49519C
:100D9000E00B1F09496F070EB46E01015991599379
:100DA000599507D002001A00003341260008415A25
:100DB0000000000EF86E0D0EF76EA40EF66E090020
:100DC000F550006E000A13E00900F550016EE8BE10
:100DD00005D03F0BEA6E0900F5CFE9FF01BC090021
:100DE00001AC0900F5CFEEFF004EE9D7F9D7F86A5C
:100DF000000177D40101686B676B68C166F167C158
:100E000065F1939A8A9A93988A9893968A96AA0EED
:100E1000F66E050EF76E110E696F000113DDC80E38
:100E2000F66E050EF76E23DDBD0EF66E050EF76E3F
:100E30000A0E0101696F000105DD9D829D8AC00EC9
:100E4000F2120101646B0400672BD8B4682B2051A7
:100E5000770809E221812183D20EF66E050EF76E26
:100E6000000105DD010121A121D02191F29CF29E1A
:100E7000F2BEFDD721C027F020C026F023C029F004
:100E800022C028F025C02BF024C02AF0216A206A55
:100E900023682268256A246AC00EF2120001A6D5D2
:100EA000F20EF66E050EF76EE2DC010121A393D07F
:100EB00021930C0EF66E060EF76E0001D8DC400E84
:100EC000F66E060EF76E130E0101696F0001BADCB3
:100ED00020C169F11B0E01016A6F000122D60D0EBF
:100EE000A4A8FED7A96E0A0EA4A8FED7A96E580E14
:100EF000F66E060EF76E090E0101696F0001A2DCA5
:100F0000100EE96E2BC06AF12AC069F14ADE640E48
:100F1000F66E060EF76E090E0101696F000192DC94
:100F2000100EE96E27C06AF126C069F13ADE700E34
:100F3000F66E060EF76E0D0E0101696F000182DC80
:100F4000100EE96E29C06AF128C069F12ADE800E10
:100F5000F66E060EF76E030E0101696F000172DC7A
:100F6000840EF66E060EF76E090E0101696F000120
:100F700069DC100EE96E19C16AF118C169F111DE60
:100F8000900EF66E060EF76E0B0E0101696F0001F2
:100F900059DC100EE96E1BC16AF11AC169F101DE5C
:100FA0009E0EF66E060EF76E0C0E0101696F0001C3
:100FB00049DC100EE96E1DC16AF11CC169F1F1DD59
:100FC000AD0EF66E060EF76E030E0101696F00019D
:100FD00039DC0101206B21A504D0219500013AD60E
:060FE000010131D7FFD72B
:083FF80000F41CFFFFF9CFF1FA
:00000001FF
;PIC18F24J11
;CRC=EE1A  CREATED="27-Jan-21 18:23"
