:040000004EEF07F0C8
:08000800046ED8CF05F0E0CF33
:1000100006F00001E9CF0CF0EACF07F0E1CF08F0DD
:10002000E2CF09F0D9CF0AF0DACF0BF0F3CF12F01C
:10003000F4CF13F0FACF14F0F5CF15F0F6CF16F099
:10004000F7CF17F000C00EF001C00FF002C010F0A3
:1000500003C011F09DA230EF00F09EB279EF00F0E6
:100060009DAA36EF00F09EBACFEF00F0A3AA3CEFB6
:1000700000F0A4BAB5EF00F00EC000F00FC001F020
:1000800010C002F011C003F00CC0E9FF07C0EAFF86
:10009000078E08C0E1FF09C0E2FF0AC0D9FF0BC00C
:1000A000DAFF12C0F3FF13C0F4FF14C0FAFF15C04B
:1000B000F5FF16C0F6FF17C0F7FF045006C0E0FFBB
:1000C00005C0D8FF1000F76AD60FF66E000EF722B3
:1000D0000900F5501200475048445400F76AEC0FED
:1000E000F66E000EF7220900F55012004750524DEF
:1000F00043000101582B5851640802E1586B2185D7
:100100008BA108D0223D03D0233D01D003D0222B68
:10011000D8B4232B93808B9381B08B838BB31ED069
:1001200059A11CD0242AD8B4252A59A311D08B91C7
:1001300023C121F022C120F02150235C08E303E118
:100140002250205C04E221C023F020C022F0599309
:1001500059B304D0236B226B8B81598359918BB394
:1001600059819E9200013CEF00F0A4AAFED7AACFCD
:100170008BF10101A49A00013CEF00F001018E51C6
:100180009003F3CF01F0F4CF00F09103F350002679
:100190008F519003F3500020026E00011200010104
:1001A00059B5A9D15DC15CF15EC15DF15FC15EF180
:1001B00060C15FF161C160F19EAAFED7AFCF61F16E
:1001C0005C51240801E0EBD15A6B5A510108D8A0C8
:1001D00091D18F6B5AC18EF1916B760E906F0001A9
:1001E000CDDF02C003F001500C0F01018C6F000E37
:1001F00002208D6F020E8C27000E8D23200E8C2581
:10020000E96E000E8D21EA6E5D51EF5CD8A470D1CD
:100210008F6B5AC18EF1916B760E906F0001AEDF3D
:1002200001500C0F01018E6F000E02208F6F020E25
:100230008E27000E8F23010E8E25016E000E8F215A
:10024000036E0150200FE96E000E0320EA6E5E512E
:10025000EF5CD8A44DD18F6B5AC18EF1916B760EA5
:10026000906F00018BDF01500C0F01018E6F000EAB
:1002700002208F6F020E8E27000E8F23020E8E2516
:10028000016E000E8F21036E0150200FE96E000EEB
:100290000320EA6E5F51EF5CD8A42AD18F6B5AC15C
:1002A0008EF1916B760E906F000168DF01500C0F9C
:1002B00001018E6F000E02208F6F020E8E27000E3E
:1002C0008F23030E8E25016E000E8F21036E0150C9
:1002D000200FE96E000E0320EA6E6051EF5CD8A497
:1002E00007D18F6B5AC18EF1916B760E906F000122
:1002F00045DF01500C0F01018E6F000E02208F6F41
:10030000020E8E27000E8F23040E8E25016E000E26
:100310008F21036E0150200FE96E000E0320EA6E5C
:100320006151EF5CD8A4E4D08F6B5AC18EF1916B10
:10033000760E906F000122DF01500C0F01018C6FCF
:10034000000E02208D6F010E8C25016E000E8D2196
:10035000036E0150200FE96E000E0320EA6EEF6A73
:1003600093988A788F6B5AC18EF1916B760E906F4D
:10037000000104DF01500C0F01018C6F000E022000
:100380008D6F080E8C27000E8D23200E8C25E96EB4
:10039000000E8D21EA6E5DC1EFFF8F6B5AC18EF1A9
:1003A000916B760E906F0001E9DE01500C0F010198
:1003B0008C6F000E02208D6F080E8C27000E8D238F
:1003C000010E8C25016E000E8D21036E0150200F51
:1003D000E96E000E0320EA6E5EC1EFFF8F6B5AC11B
:1003E0008EF1916B760E906F0001C8DE01500C0FFC
:1003F00001018C6F000E02208D6F080E8C27000EFD
:100400008D23020E8C25016E000E8D21036E01508E
:10041000200FE96E000E0320EA6E5FC1EFFF8F6BC5
:100420005AC18EF1916B760E906F0001A7DE0150DC
:100430000C0F01018C6F000E02208D6F080E8C27AF
:10044000000E8D23030E8C25016E000E8D21036E90
:100450000150200FE96E000E0320EA6E60C1EFFF2D
:100460008F6B5AC18EF1916B760E906F000186DE14
:1004700001500C0F01018C6F000E02208D6F080ED1
:100480008C27000E8D23040E8C25016E000E8D210D
:10049000036E0150200FE96E000E0320EA6E61C169
:1004A000EFFF8F6B5AC18EF1916B760E906F00014A
:1004B00065DE01500C0F01018C6F000E02208D6F64
:1004C000080E8C27000E8D23050E8C25016E000E64
:1004D0008D21036E0150200FE96E000E0320EA6E9D
:1004E000EF6A050E5B6F5A5301E12181598502D0F5
:1004F0005A2B6BD654D09EAAFED7AFCF8BF18B511F
:100500000D0803E08B510A0805E159955A5301E1A2
:10051000218345D05B516B0842E38F6B5AC18EF14A
:10052000916B760E906F000129DE01500C0F0101D6
:100530008C6F000E02208D6F080E8C27000E8D230D
:100540005B518C25016E000E8D21036E0150200F32
:10055000E96E000E0320EA6E8BC1EFFF5B2B8F6B01
:100560005AC18EF1916B760E906F000107DE01503B
:100570000C0F01018C6F000E02208D6F080E8C276E
:10058000000E8D235B518C25016E000E8D21036EB4
:100590000150200FE96E000E0320EA6EEF6A9E9A6A
:1005A00000013CEF00F02320766563746F72576999
:1005B0006E645854432028257329206F6E205854A8
:1005C000430D0A0032372D4A616E2D32310023204F
:1005D00074696D656F75742077616974696E6720E1
:1005E000666F7220747269676765720D0A00232056
:1005F000676F7420747269676765722073656E74C3
:10060000656E63650D0A0000232066696E69736874
:10061000656420726563656976696E6720747269C6
:10062000676765722073656E74656E6365206F72AF
:100630002074696D656F75740D0A00002320637561
:100640007272656E742E6C6976655F6167653D25B3
:10065000750D0A0023207B636F756E743D256C75E4
:100660002C20706572696F643D256C752C206D6956
:100670006E5F706572696F643D256C757D0D0A0053
:1006800023207B696E7075743D256C752C20766512
:1006900072746963616C3D256C752C2077696E649A
:1006A0005F76616E653D256C757D0D0A0000232027
:1006B0006E6D65615F73656E74656E63655B2575F0
:1006C0005D2069643D25752076616C69643D257502
:1006D000206167653D2575207072656669783D27E4
:1006E00025732720272573270D0A0000010EEA6EC7
:1006F0006C0EE96EEF5011E0020E016EBF0E006E3F
:100700000400002EFDD7012EF9D7960E006E002EA4
:10071000FED700D00400EF2EEFD71200C150C00B5F
:100720000309C16EC18EC280C18CC282C2B2FED723
:10073000C19CF80E0F01486FC28CC29E4951E00B5C
:100740001F09496FF80E486F7F0E496F000E0509AB
:10075000CA6E310ECB6E0E0E01016C6F0001C6DF4A
:100760000101219121932195216A206A2368226841
:10077000256A246A696B6951010864E3196AF2BE4B
:10078000198EF29E8F6B69C18EF1916B760E906F10
:100790000001F4DC19BEF28E01500C0F01016A6FEA
:1007A000000E02206B6F010E6A25016E000E6B2198
:1007B000036E0150200FE96E000E0320EA6EEF6811
:1007C000196AF2BE198EF29E8F6B69C18EF1916B20
:1007D000760E906F0001D2DC19BEF28E01500C0F24
:1007E00001016A6F000E02206B6F020E6A27000E75
:1007F0006B23200E6A25E96E000E6B21EA6EEF6A0C
:10080000196AF2BE198EF29E8F6B69C18EF1916BDF
:10081000760E906F0001B2DC19BEF28E01500C0F03
:1008200001016A6F000E02206B6F080E6A27000E2E
:100830006B23200E6A25E96E000E6B21EA6EEF6ACB
:10084000692B99D70D0E2C6EEA6A2E0EE96E000EFA
:10085000000139DC0A000900F550EE6E0009FBE1E9
:10086000070EA26FEA6AA40EE96E000E37DC0A00DA
:100870000900F550EE6E0009FBE1ACEF07F009004E
:10088000F6CF73F1F7CF74F1F550A4A8FED7A96E97
:1008900073C1F6FF74C1F7FF0101722F01D002D0BE
:1008A0000001EDD7000112000900F5520DE0F6CF6E
:1008B00069F1F7CF6AF1F550A4A8FED7A96E69C116
:1008C000F6FF6AC1F7FFF0D71200D8B204D0010ECC
:1008D000EA6E860EE96E006A016A026A036A010125
:1008E000866B876B886B896B8551841183118211AC
:1008F0002CE0200E8A6FD8907E377F378037813783
:1009000086378737883789378551895D08E1845173
:10091000885D05E18351875D02E18251865D0FE3C9
:100920008251865F8351D8A0833D875F8451D8A0D0
:10093000843D885F8551D8A0853D895FD880003689
:100940000136023603368A2FD6D786C1EFFF87C11C
:10095000ECFF88C1ECFF89C1ECFF000104EF05F05A
:10096000D89001015635036A360FE96E010E032057
:10097000EA6E6FC1ECFFED526EC1EFFF562B565180
:100980000F0801E2566B57510F0801E3572B776BA5
:10099000766B756B746B786B5751785D14E2D890F9
:1009A0007835036A360FE96E010E0320EA6EECCF4C
:1009B00003F0ED52EF50742703507523000E762399
:1009C0007723782BE9D7D8905731006E016A026AF5
:1009D000036A005074257A6F015075217B6F0250B5
:1009E00076217C6F035077217D6FD892816F7CC117
:1009F00080F17BC17FF17AC17EF1856B846B836B63
:100A000057C182F1000161D703C073F102C072F1D6
:100A100001C071F100C070F1010170C101F071C13C
:100A200002F000011200000E016EC250C30B011053
:100A3000C26E010E01016C6F000158DE0101696B8D
:100A400069510F0818E3C282C2B2FED7C4CF02F0C8
:100A5000C3CF01F0C4CF6DF1C3CF6CF1C4CF6FF140
:100A6000C3CF6EF100017CDF02C06BF101C06AF1FF
:100A70000101692BE5D76BC119F16AC118F1040EA8
:100A8000016EC250C30B0110C26E010E6C6F0001EB
:100A90002DDE0101696B69510F0818E3C282C2B2F1
:100AA000FED7C4CF02F0C3CF01F0C4CF6DF1C3CFE6
:100AB0006CF1C4CF6FF1C3CF6EF1000151DF02C002
:100AC0006BF101C06AF10101692BE5D76BC11DF122
:100AD0006AC11CF1080E016EC250C30B0110C26E38
:100AE000010E6C6F000102DE0101696B69510F0894
:100AF00018E3C282C2B2FED7C4CF02F0C3CF01F066
:100B0000C4CF6DF1C3CF6CF1C4CF6FF1C3CF6EF121
:100B1000000126DF02C06BF101C06AF10101692BFF
:100B2000E5D76BC11BF16AC11AF1000102EF08F0B1
:100B300001017551016A745D03E274C100F00CD0CB
:100B4000006A080E766F743700367551005CD8B0B5
:100B5000006E0136762FF7D700011200015072C1E6
:100B600074F1640E0101756F0001E2DF00C072F1E3
:100B70000150300E08E1010173A30ED073B70CD001
:100B800073B9200E04D00101739773997381012604
:100B90000150A4A8FED7A96E72C174F10A0E756F38
:100BA0000001C6DF00C072F10150300E08E1010102
:100BB00073B70BD073A109D073B9200E00010126C1
:100BC0000150A4A8FED7A96E0101300E7227725100
:100BD000A4A8FED7A96E00011200EACF71F1E9CFF7
:100BE00070F101016A39F0096C6F6C27E20F6D6FCB
:100BF000320F6F6F6A510F0B6D276D276F27E90F4B
:100C00006E6F6E276E2769390F0B6E276F276E3751
:100C10006F376F1F6F3769510F0B6F276C37070ED8
:100C20006B6F0A0E6E076F27FDE36D076E27FDE3FE
:100C30006C076D27FDE36B076C27FDE3010EEA6E81
:100C40006B0EE96E070E7015709DE926000EEA2204
:100C5000E9506F0803E1EA2C01D0708DEF50006E6F
:100C600008E170BD06D070B90CD070B702D0200E6C
:100C700003D070877099300E00260050A4A8FED7CC
:100C8000A96EEE5070ADE4D700011200010177515A
:100C90002F0807E27751390804E3300E775D016EC3
:100CA00018D07751600806E277517A0803E377514C
:100CB000DF0B01D07751776F7751400808E2775109
:100CC000460805E3410E775D0A0F016E02D0000E63
:100CD000016E000112000101736B726B73C171F13F
:100CE00072C170F1746B74516D0802E2000E01D094
:100CF000010E010848E374516E25E96E000E6F2164
:100D0000EA6EEF5003E1000E016E3FD074516E2584
:100D1000E96E000E6F21EA6EEF502A082AE1010EFB
:100D200074256E25E96E000E6F21EA6EEFCF77F124
:100D30000001ACDF0150100DF3CF75F10101020E7F
:100D400074256E25E96E000E6F21EA6EEFCF77F104
:100D500000019CDF015001017525726F736B7051AA
:100D6000725D06E17151735D03E1010E016E0DD0FC
:100D700008D074516E25E96E000E6F21EA6EEF50B7
:100D8000701B742BB0D7000E016E0001EDEF08F060
:100D9000EF5210E0EACF73F1E9CF72F1EF50A4A85F
:100DA000FED7A96E73C1EAFF72C1E9FFE92AD8B480
:100DB000EA2AEED712000101696B695101084AE382
:100DC000196AF2BE198EF29E8F6B69C18EF1916B1A
:100DD000760E906F0001BEEC00F019BEF28E01504D
:100DE0000C0F01016A6F000E02206B6F010E6A2565
:100DF000016E000E6B21036E0150200FE96E000E94
:100E00000320EA6EEF3C01D023D0196AF2BE198E9E
:100E1000F29E8F6B69C18EF1916B760E906F00011F
:100E2000BEEC00F019BEF28E01500C0F01016A6F8A
:100E3000000E02206B6F010E6A25016E000E6B2101
:100E4000036E0150200FE96E000E0320EA6EEF2AB8
:100E5000692BB3D7203D01D001D0202B2A5202E1CB
:100E60002B5203E0939A8A8A02D0939A8A9A1B5152
:100E7000020805E2FF0A0AE11A510E0807E31B51B6
:100E8000030807E303E11A51010803E393968A86F6
:100E900002D093968A960001D2EF09F0F86AD09EAC
:100EA000078E0E01550EA76EAA0EA76EFF910C0EAF
:100EB000F66F050ED16F550EA76EAA0EA76EFF81B5
:100EC0007E96190EB06EA60EAD6E900EAC6E7C8640
:100ED000220EAB6E000E7D6EA60EA86E900E9C6E5E
:100EE0000101636B626BFF0E0F01486FC29CC29ED3
:100EF0004951E00B1F09496F070EB46E010159916A
:100F00005993599507D002001A0000334126000872
:100F1000415A0000000EF86E0F0EF76E060EF66EC8
:100F20000900F550006E000A13E00900F550016E4B
:100F3000E8BE05D03F0BEA6E0900F5CFE9FF01BC22
:100F4000090001AC0900F5CFEEFF004EE9D7F9D753
:100F5000F86A00018EEF03F00101686B676B68C1EE
:100F600066F167C165F1939A8A9A93988A989396E5
:100F70008A96A60EF66E050EF76E110E726F0001C0
:100F80007EDCC40EF66E050EF76E8EDCB90EF66EC4
:100F9000050EF76E0A0E0101726F000170DC9D8272
:100FA0009D8AC00EF2120101646B0400672BD8B455
:100FB000682B2051770809E221812183CE0EF66E3D
:100FC000050EF76E000170DC010121A121D02191F5
:100FD000F29CF29EF2BEFDD721C027F020C026F081
:100FE00023C029F022C028F025C02BF024C02AF00D
:100FF000216A206A23682268256A246AC00EF212D8
:10100000000111D5EE0EF66E050EF76E4DDC0101F6
:1010100021A3C3D12193080EF66E060EF76E0001D0
:1010200043DC3C0EF66E060EF76E130E0101726F76
:10103000000125DC20C172F11B0E0101736F00015C
:101040008DDD0D0EA4A8FED7A96E0A0EA4A8FED7AA
:10105000A96E540EF66E060EF76E090E0101726F40
:1010600000010DDC100EE96E2BC06AF12AC069F197
:10107000B4DD600EF66E060EF76E090E0101726F9A
:1010800000013FEC04F0100EE96E27C06AF126C0A3
:1010900069F1A3DD6C0EF66E060EF76E0D0E010102
:1010A000726F00013FEC04F0100EE96E29C06AF186
:1010B00028C069F192DD7C0EF66E060EF76E030E07
:1010C0000101726F00013FEC04F0800EF66E060E17
:1010D000F76E090E0101726F00013FEC04F0100E73
:1010E000E96E19C16AF118C169F177DD8C0EF66EEF
:1010F000060EF76E0B0E0101726F00013FEC04F05B
:10110000100EE96E1BC16AF11AC169F166DD9A0E13
:10111000F66E060EF76E0C0E0101726F00013FECC9
:1011200004F0100EE96E1DC16AF11CC169F155DDB4
:10113000A90EF66E060EF76E030E0101726F000126
:101140003FEC04F00101646B64510108D8A024D184
:10115000196AF2BE198EF29E8F6B64C18EF1916B8B
:10116000760E906F0001BEEC00F019BEF28E02C048
:1011700003F001502C0FE96E000E0220EA6EEFCF53
:101180006BF1196AF2BE198EF29E01018F6B64C178
:101190008EF1916B760E906F0001BEEC00F019BEDF
:1011A000F28E01500C0F01016C6F000E02206D6F6A
:1011B000080E6C25016E000E6D21036E0150200F8C
:1011C000016E000E032201C06CF103C06DF103C07B
:1011D0006FF101C06EF100017ED501C06CF1196A9A
:1011E000F2BE198EF29E01018F6B64C18EF1916B7C
:1011F000760E906F0001BEEC00F019BEF28E015029
:101200000C0F01016D6F000E02206E6F010E6D2537
:10121000016E000E6E21036E0150200FE96E000E6C
:101220000320EA6EEFCF6DF1196AF2BE198EF29EBD
:101230008F6B64C18EF1916B760E906F0001BEECE6
:1012400000F019BEF28E01500C0F01016E6F000EFE
:1012500002206F6F020E6E25016E000E6F21036E6D
:101260000150200F016E000E032201C06EF103C079
:101270006FF1196AF2BE198EF29E8F6B64C18EF106
:10128000916B760E906F0001BEEC00F019BEF28EED
:1012900001500C0F0101706F000E0220716F080EDB
:1012A0007025016E000E7121036E0150200F016E3A
:1012B000000E032201C070F103C071F1AE0EF66E94
:1012C000060EF76E100E726F00013FEC04F064C161
:1012D00072F11B0E0101736F000140DCC00EF66E4F
:1012E000060EF76E050E0101726F00013FEC04F06F
:1012F0006BC172F11B0E0101736F00012FDCC70E71
:10130000F66E060EF76E070E0101726F00013FECDC
:1013100004F06CC172F11B0E0101736F00011EDC41
:10132000D00EF66E060EF76E050E0101726F00010B
:101330003FEC04F06DC172F11B0E0101736F0001EF
:101340000DDCD70EF66E060EF76E090E0101726FF8
:1013500000013FEC04F06FC1EAFF6EC1E9FF18DD48
:10136000E20EF66E060EF76E030E0101726F0001BB
:101370003FEC04F071C1EAFF70C1E9FF09DDE70E3F
:10138000F66E060EF76E030E0101726F00013FEC60
:1013900004F00101642BD8D6206B21A504D021953F
:0A13A000000109D5010101D6FFD7B5
:083FF80000F41CFFFFF9CFF1FA
:00000001FF
;PIC18F24J11
;CRC=6AFC  CREATED="27-Jan-21 18:09"
