:04000000B5EF04F064
:0800080065EF00F000000000AC
:100010000000000000000000046ED8CF05F0E0CF23
:1000200006F00001E9CF0CF0EACF07F0E1CF08F0CD
:10003000E2CF09F0D9CF0AF0DACF0BF0F3CF12F00C
:10004000F4CF13F0FACF14F0F5CF15F0F6CF16F089
:10005000F7CF17F000C00EF001C00FF002C010F093
:1000600003C011F09DAA38EF00F09EBA27EF01F00F
:10007000A3AA3EEF00F0A4BA15EF01F00EC000F005
:100080000FC001F010C002F011C003F00CC0E9FF76
:1000900007C0EAFF078E08C0E1FF09C0E2FF0AC0FF
:1000A000D9FF0BC0DAFF12C0F3FF13C0F4FF14C076
:1000B000FAFF15C0F5FF16C0F6FF17C0F7FF045092
:1000C00006C0E0FF05C0D8FF10000001E9CF1EF018
:1000D000EACF19F0E1CF1AF0E2CF1BF0D9CF1CF034
:1000E000DACF1DF0F3CF24F0F4CF25F0FACF26F0CD
:1000F000F5CF27F0F6CF28F0F7CF29F000C020F099
:1001000001C021F002C022F003C023F09DA28CEFB9
:1001100000F09EB2AEEF00F020C000F021C001F070
:1001200022C002F023C003F01EC0E9FF19C0EAFF9D
:10013000198E1AC0E1FF1BC0E2FF1CC0D9FF1DC011
:10014000DAFF24C0F3FF25C0F4FF26C0FAFF27C062
:10015000F5FF28C0F6FF29C0F7FF110002016C2B44
:100160006C51640804E16C6B0101468902019EA197
:100170000CD00101473D05D0483D03D0020105D018
:100180000101472BD8B4482B020193809E9381B084
:100190009E839EB320D06DA11ED0362AD8B4372AB4
:1001A0006DA311D09E9148C133F047C132F0335056
:1001B000355C08E303E13450325C04E233C035F0CF
:1001C00032C034F06D936DB306D00101486B476BBC
:1001D00002019E816D836D919EB36D81010146A3E5
:1001E00014D0469333C039F032C038F035C03BF0FC
:1001F00034C03AF037C03DF036C03CF0336A326A62
:1002000035683468376A366A46859E9200018CEFFD
:1002100000F0A4AAFED79CCF31F0AACF01F031A202
:1002200002D09C989C8816EF01F0F3D701C09AF297
:10023000A49A3EEF00F09EAAFED7ACCF31F0AFCF2C
:1002400001F031A202D0AC98AC8828EF01F0F3D7CE
:1002500001C09AF202019A510D0818E09A510A0859
:1002600015E07451FB0812E3036A74514B0FE96EF9
:10027000010E0320EA6E9AC2EFFF742B036A7451D9
:100280004B0FE96E010E0320EA6EEF6A6DB526D0C2
:100290006FC26EF270C26FF271C270F272C271F20E
:1002A00073C272F29AC273F26E51240816E16F5152
:1002B000470813E17051500810E1715148080DE1F1
:1002C000725144080AE17351540807E10101468361
:1002D000476A02016D8593988A782FD09A510D084C
:1002E00003E09A510A0829E19A6B74519A5D19E268
:1002F000480E9A25016E036AD8B0032A03C09CF207
:10030000036A9A514B0FE96E010E0320EA6EEFCF9C
:100310009DF29CC2EAFF01C0E9FF9DC2EFFF9A2B4C
:10032000E4D7480E9A25E96EEA6AD8B0EA2AEF6A5D
:100330000101468702016D95746B9E9A00013EEFA4
:1003400000F02320766563746F7257696E645854A9
:10035000432028257329206F6E205854430D0A002E
:1003600032382D4A616E2D3231002320676F7420A0
:10037000747269676765722073656E74656E636514
:100380000D0A0000232066696E6973686564207237
:100390006563656976696E672074726967676572FF
:1003A0002073656E74656E6365206F722074696D6D
:1003B000656F75740D0A0000232063757272656E97
:1003C000742E6C6976655F6167653D25750D0A0061
:1003D00023207B636F756E743D256C752C207065D2
:1003E00072696F643D256C752C206D696E5F706558
:1003F00072696F643D256C757D0D0A0023207B6951
:100400006E7075743D256C752C2076657274696309
:10041000616C3D256C752C2077696E645F76616E2A
:10042000653D256C757D0D0A000023206375727291
:10043000656E74207B676E73735F6167653D2575BC
:1004400020676E73733D272573277D0D0A00020E0A
:10045000EA6E7B0EE96EEF5011E00A0E016EBF0EE0
:10046000006E0400002EFDD7012EF9D75E0E006E3F
:10047000002EFED700D00400EF2EEFD71200C1509F
:10048000C00B0309C16EC18EC280C18CC282C2B2D0
:10049000FED7C19CF80E0F01486FC28CC29E495115
:1004A000E00B1F09496FF80E486F7F0E496F000E71
:1004B0000609CA6E310ECB6E0E0E02017B6F000173
:1004C000C6DF01014693469546974699336A326ADC
:1004D00035683468376A366A4B6B0201496B000134
:1004E0001CEF05F00900F6CF79F2F7CF7AF2F5505C
:1004F000A4A8FED7A96E79C2F6FF7AC2F7FF02015F
:10050000782F01D002D00001EDD7000112000900C0
:10051000F5520DE0F6CF78F2F7CF79F2F550A4A8B6
:10052000FED7A96E78C2F6FF79C2F7FFF0D71200A6
:10053000D8B204D0020EEA6E950EE96E006A016A26
:10054000026A036A0201956B966B976B986B9451E4
:100550009311921191112CE0200E996FD8908D3744
:100560008E378F379037953796379737983794511E
:10057000985D08E19351975D05E19251965D02E126
:100580009151955D0FE39151955F9251D8A0923DA5
:10059000965F9351D8A0933D975F9451D8A0943D16
:1005A000985FD8800036013602360336992FD6D7A9
:1005B00095C2EFFF96C2ECFF97C2ECFF98C2ECFF2A
:1005C000000137EF03F0D89002016A35036A4A0F41
:1005D000E96E020E0320EA6E7EC2ECFFED527DC290
:1005E000EFFF6A2B6A510F0801E26A6B6B510F082B
:1005F00001E36B2B866B856B846B836B876B6B5115
:10060000875D14E2D8908735036A4A0FE96E020EBF
:100610000320EA6EECCF03F0ED52EF508327035036
:100620008423000E85238623872BE9D7D8906B314E
:10063000006E016A026A036A00508325896F0150C7
:1006400084218A6F025085218B6F035086218C6F25
:10065000D892906F8BC28FF28AC28EF289C28DF2CD
:10066000946B936B926B6BC291F2000161D703C0E4
:1006700082F202C081F201C080F200C07FF202016A
:100680007FC201F080C202F000011200000E016E74
:10069000C250C30B0110C26E010E02017B6F00013C
:1006A000D6DE0201786B78510F0818E3C282C2B21D
:1006B000FED7C4CF02F0C3CF01F0C4CF7CF2C3CFCA
:1006C0007BF2C4CF7EF2C3CF7DF200017CDF02C09B
:1006D0007AF201C079F20201782BE5D77AC23FF0B5
:1006E00079C23EF0040E016EC250C30B0110C26EFF
:1006F000010E7B6F0001ABDE0201786B78510F08B1
:1007000018E3C282C2B2FED7C4CF02F0C3CF01F059
:10071000C4CF7CF2C3CF7BF2C4CF7EF2C3CF7DF2D5
:10072000000151DF02C07AF201C079F20201782B98
:10073000E5D77AC243F079C242F0080E016EC2508A
:10074000C30B0110C26E010E7B6F000180DE02013F
:10075000786B78510F0818E3C282C2B2FED7C4CFBB
:1007600002F0C3CF01F0C4CF7CF2C3CF7BF2C4CF81
:100770007EF2C3CF7DF2000126DF02C07AF201C013
:1007800079F20201782BE5D77AC241F079C240F0C4
:10079000000146EF05F002017B51016A7A5D03E238
:1007A0007AC200F00CD0006A080E7C6F7A370036EF
:1007B0007B51005CD8B0006E01367C2FF7D700016A
:1007C0001200015078C27AF2640E02017B6F0001C0
:1007D000E2DF00C078F20150300E08E1020179A397
:1007E0000ED079B70CD079B9200E04D002017997D8
:1007F0007999798101260150A4A8FED7A96E78C203
:100800007AF20A0E7B6F0001C6DF00C078F2015059
:10081000300E08E1020179B70BD079A109D079B97E
:10082000200E000101260150A4A8FED7A96E0201E6
:10083000300E78277851A4A8FED7A96E00011200C7
:10084000EACF80F2E9CF7FF202017939F0097B6FBC
:100850007B27E20F7C6F320F7E6F79510F0B7C2765
:100860007C277E27E90F7D6F7D277D2778390F0B49
:100870007D277E277D377E377E1F7E3778510F0B91
:100880007E277B37070E7A6F0A0E7D077E27FDE3F2
:100890007C077D27FDE37B077C27FDE37A077B2729
:1008A000FDE3020EEA6E7A0EE96E070E7F157F9D5C
:1008B000E926000EEA22E9507E0804E1EA50020827
:1008C00001E17F8DEF50006E08E17FBD06D07FB95A
:1008D0000CD07FB702D0200E03D07F877F99300ED7
:1008E00000260050A4A8FED7A96EEE507FADE3D736
:1008F00000011200EF5210E0EACF79F2E9CF78F26E
:10090000EF50A4A8FED7A96E79C2EAFF78C2E9FF2A
:10091000E92AD8B4EA2AEED7FCEF05F0473C01D02B
:1009200001D0472A463C01D001D0462A3C5202E180
:100930003D5203E0939A8A8A02D0939A8A9A415050
:10094000020805E2FF0A0AE140500E0807E34150A1
:10095000030807E303E14050010803E393968A8606
:1009600002D093968A960CEF06F0F86A9F829F9ABF
:10097000A59AD08E078E0E01550EA76EAA0EA76EF1
:10098000FF910C0EF66F050ED16F550EA76EAA0ED5
:10099000A76EFF81400E9B6ED36AD350316A7E866C
:1009A000A00EB06E010E7F6EA60EAD6E900EAC6EF8
:1009B0007C868A0EAB6E000E7D6EA60EA86E900E23
:1009C0009C6E0201766B756BFF0E0F01486FC29C27
:1009D000C29E4951E00B1F09496F070EB46E020118
:1009E0006D916D936D9507D002002B000023424A54
:1009F0000007426E0000000EF86E090EF76EE80E5A
:100A0000F66E0900F550006E000A13E00900F5507B
:100A1000016EE8BE05D03F0BEA6E0900F5CFE9FF95
:100A200001BC090001AC0900F5CFEEFF004EE9D78B
:100A3000F9D7F86A000123D5939A8A9A93988A98ED
:100A400093968A96420EF66E030EF76E110E020111
:100A5000786F000147DD600EF66E030EF76E57DD0E
:100A6000550EF66E030EF76E0A0E0201786F000146
:100A700039DD9D829D8AC00EF2120201776B04005F
:100A8000010146A509D04695000100D66A0EF66E12
:100A9000030EF76E3CDD010146A7B9D04697840EE0
:100AA000F66E030EF76E000132DDB80EF66E030E21
:100AB000F76E130E0201786F000114DD46C078F264
:100AC0001B0E0201796F00017CDE0D0EA4A8FED77B
:100AD000A96E0A0EA4A8FED7A96ED00EF66E030E5C
:100AE000F76E090E0201786F0001FCDC100EE96E52
:100AF0003DC079F23CC078F2A3DEDC0EF66E030E48
:100B0000F76E090E0201786F0001ECDC100EE96E41
:100B100039C079F238C078F293DEE80EF66E030E33
:100B2000F76E0D0E0201786F0001DCDC100EE96E2D
:100B30003BC079F23AC078F283DEF80EF66E030E0F
:100B4000F76E030E0201786F0001CCDCFC0EF66E2E
:100B5000030EF76E090E0201786F0001C3DC100E60
:100B6000E96E3FC079F23EC078F26ADE080EF66E9A
:100B7000040EF76E0B0E0201786F0001B3DC100E4D
:100B8000E96E41C079F240C078F25ADE160EF66E78
:100B9000040EF76E0C0E0201786F0001A3DC100E3C
:100BA000E96E43C079F242C078F24ADE250EF66E55
:100BB000040EF76E030E0201786F000193DC2A0E1B
:100BC000F66E040EF76E140E0201786F00018ADCD7
:100BD00047C078F21B0E0201796F0001F2DD400E72
:100BE000F66E040EF76E070E0201786F00017ADCD4
:100BF000EA6A480EE96E7ED6490EF66E040EF76E6E
:100C0000040E0201786F00016DDC466A010146A9FD
:100C100004D04699000182D60101020130D7FFD7E6
:083FF80000F41DFFFFF9CFF1F9
:00000001FF
;PIC18F24J11
;CRC=9AA8  CREATED="28-Jan-21 18:20"
