:04000000CBEF04F04E
:08000800046ED8CF05F0E0CF33
:1000100006F00001E9CF0CF0EACF07F0E1CF08F0DD
:10002000E2CF09F0D9CF0AF0DACF0BF0F3CF12F01C
:10003000F4CF13F0FACF14F0F5CF15F0F6CF16F099
:10004000F7CF17F000C00EF001C00FF002C010F0A3
:1000500003C011F09DA230EF00F09EB263EF00F0FC
:100060009DAA36EF00F09EBAB0EF00F0A3AA3CEFD5
:1000700000F0A4BAA7EF00F00EC000F00FC001F02E
:1000800010C002F011C003F00CC0E9FF07C0EAFF86
:10009000078E08C0E1FF09C0E2FF0AC0D9FF0BC00C
:1000A000DAFF12C0F3FF13C0F4FF14C0FAFF15C04B
:1000B000F5FF16C0F6FF17C0F7FF045006C0E0FFBB
:1000C00005C0D8FF100001010C2B0C51640804E19D
:1000D0000C6B0001D585010138A10CD00001D63D83
:1000E00005D0D73D03D0010105D00001D62BD8B4EF
:1000F000D72B01019380389381B0388338B320D057
:100100000DA11ED0232AD8B4242A0DA311D03891D2
:10011000D7C020F0D6C01FF02050225C08E303E1D6
:1001200021501F5C04E220C022F01FC021F00D937B
:100130000DB306D00001D76BD66B010138810D835A
:100140000D9138B30D819E9200013CEF00F0A4AAFE
:10015000FED7AACF38F10101A49A00013CEF00F0CC
:1001600001010DB5B7D03AC139F13BC13AF13CC1FB
:100170003BF13DC13CF13EC13DF19EAAFED7AFCF60
:100180003EF139512408D8A4A4D03C5147080AE1D3
:100190003D51470807E13E51410804E1010E0E6F51
:1001A0000D850ED03C5148080BE13D51440808E153
:1001B0003E51540805E10E6B0D850001D58101010A
:1001C0000DA587D00E51500DF350036A2B0FE96E29
:1001D000000E0320EA6E3AC1EFFF0E51500DF350AE
:1001E000036A0C0F406F000E0320416F010E402583
:1001F000016E000E4121036E01501F0FE96E000ECB
:100200000320EA6E3BC1EFFF0E51500DF350036A1D
:100210000C0F406F000E0320416F020E4025016E4F
:10022000000E4121036E01501F0FE96E000E0320E6
:10023000EA6E3CC1EFFF0E51500DF350036A0C0FF4
:10024000406F000E0320416F030E4025016E000E2B
:100250004121036E01501F0FE96E000E0320EA6E6C
:100260003DC1EFFF0E51500DF350036A0C0F406F6C
:10027000000E0320416F040E4025016E000E412147
:10028000036E01501F0FE96E000E0320EA6E3EC19F
:10029000EFFF0E51500DF350036A0C0F406F000E2C
:1002A0000320416F050E4025016E000E4121036EB3
:1002B00001501F0FE96E000E0320EA6EEF6A050E73
:1002C0003F6F036A0E51CB0FE96E000E0320EA6EFA
:1002D000EF6A42D09EAAFED7AFCF38F138510D0851
:1002E00003E038510A0807E10D950E5303E10001C0
:1002F000D583010131D03F514D082EE30E51500DF1
:10030000F350036A0C0F406F000E0320416F036A25
:100310003F514025016E4151032201501F0FE96EEC
:10032000000E0320EA6E38C1EFFF3F2B0E51500D37
:10033000F350036A0C0F406F000E0320416F036AF5
:100340003F514025016E4151032201501F0FE96EBC
:10035000000E0320EA6EEF6A9E9A00013CEF00F067
:100360002320766563746F7257696E645854432016
:1003700028257329206F6E205854430D0A00323708
:100380002D4A616E2D3231002320676F742024784E
:10039000784844540D0A0000232066696E6973682A
:1003A0006564202478784844540D0A0023207B6338
:1003B0006F756E743D256C752C20706572696F6465
:1003C0003D256C752C206D696E5F706572696F6478
:1003D0003D256C757D0D0A0023207B696E70757458
:1003E0003D256C752C20766572746963616C3D25C2
:1003F0006C752C2077696E645F76616E653D256C47
:10040000757D0D0A0000232063757272656E742E6F
:10041000676E73735F73656E74656E63655B257578
:100420005D206167653D257520272573270D0A002E
:10043000010EEA6E190EE96EEF5011E0020E016E28
:10044000BF0E006E0400002EFDD7012EF9D7960EC8
:10045000006E002EFED700D00400EF2EEFD7120062
:10046000C150C00B0309C16EC18EC280C18CC28253
:10047000C2B2FED7C19CF80E0F01486FC28CC29E5B
:100480004951E00B1F09496FF80E486F7F0E496F05
:10049000000E0509CA6E310ECB6E0E0E0101196FEA
:1004A0000001C6DFD591D593D595206A1F6A2268D1
:1004B0002168246A236A0101166B1651010814E3AE
:1004C0001651500DF350036A2B0FE96E000E0320F6
:1004D000EA6EEF6A036A1651CB0FE96E000E032035
:1004E000EA6EEF6A162BE9D7000128EF05F0090044
:1004F000F6CF1AF1F7CF1BF1F550A4A8FED7A96EDD
:100500001AC1F6FF1BC1F7FF0101192F01D002D05C
:100510000001EDD7000112000900F5520DE0F6CF01
:1005200016F1F7CF17F1F550A4A8FED7A96E16C1A2
:10053000F6FF17C1F7FFF0D71200D8B204D0010EB2
:10054000EA6E330EE96E006A016A026A036A01010B
:10055000336B346B356B366B3251311130112F11D7
:100560002CE0200E376FD8902B372C372D372E37B5
:1005700033373437353736373251365D08E131514C
:10058000355D05E13051345D02E12F51335D0FE3FC
:100590002F51335F3051D8A0303D345F3151D8A056
:1005A000313D355F3251D8A0323D365FD8800036BC
:1005B000013602360336372FD6D733C1EFFF34C1A9
:1005C000ECFF35C1ECFF36C1ECFF00013CEF03F05E
:1005D000D89001010A35036AEA0FE96E000E032084
:1005E000EA6E1CC1ECFFED521BC1EFFF0A2B0A5152
:1005F0000F0801E20A6B0B510F0801E30B2B246B70
:10060000236B226B216B256B0B51255D14E2D89077
:100610002535036AEA0FE96E000E0320EA6EECCF7F
:1006200003F0ED52EF50212703502223000E232325
:100630002423252BE9D7D8900B31006E016A026A7A
:10064000036A00502125276F01502221286F025094
:100650002321296F035024212A6FD8922E6F29C19C
:100660002DF128C12CF127C12BF1326B316B306B8E
:100670000BC12FF1000161D703C020F102C01FF1AF
:1006800001C01EF100C01DF101011DC101F01EC11C
:1006900002F000011200000E016EC250C30B0110E7
:1006A000C26E010E0101196F0001C2DE0101166B5D
:1006B00016510F0818E3C282C2B2FED7C4CF02F0AF
:1006C000C3CF01F0C4CF1AF1C3CF19F1C4CF1CF1CD
:1006D000C3CF1BF100017CDF02C018F101C017F18C
:1006E0000101162BE5D718C1CEF017C1CDF0040ECD
:1006F000016EC250C30B0110C26E010E196F0001D2
:1007000097DE0101166B16510F0818E3C282C2B2C0
:10071000FED7C4CF02F0C3CF01F0C4CF1AF1C3CFCC
:1007200019F1C4CF1CF1C3CF1BF1000151DF02C08E
:1007300018F101C017F10101162BE5D718C1D2F04D
:1007400017C1D1F0080E016EC250C30B0110C26E6A
:10075000010E196F00016CDE0101166B16510F08B6
:1007600018E3C282C2B2FED7C4CF02F0C3CF01F0F9
:10077000C4CF1AF1C3CF19F1C4CF1CF1C3CF1BF101
:10078000000126DF02C018F101C017F10101162B8C
:10079000E5D718C1D0F017C1CFF0000172EF05F016
:1007A000EACF1EF1E9CF1DF101011739F009196FE8
:1007B0001927E20F1A6F320F1C6F17510F0B1A27F0
:1007C0001A271C27E90F1B6F1B271B2716390F0B36
:1007D0001B271C271B371C371C1F1C3716510F0BE0
:1007E0001C271937070E186F0A0E1B071C27FDE37D
:1007F0001A071B27FDE319071A27FDE31807192716
:10080000FDE3010EEA6E180EE96E070E1D151D9D23
:10081000E926000EEA22E9501C0803E1EA2C01D087
:100820001D8DEF50006E08E11DBD06D01DB90CD026
:100830001DB702D0200E03D01D871D99300E002653
:100840000050A4A8FED7A96EEE501DADE4D700015C
:10085000120001011C51016A1B5D03E21BC100F083
:100860000CD0006A080E1D6F1B3700361C51005C4F
:10087000D8B0006E01361D2FF7D7000112000150CD
:1008800019C11BF1640E01011C6F0001E2DF00C001
:1008900019F10150300E08E101011AA30ED01AB768
:1008A0000CD01AB9200E04D001011A971A991A8196
:1008B00001260150A4A8FED7A96E19C11BF10A0E8A
:1008C0001C6F0001C6DF00C019F10150300E08E1B5
:1008D00001011AB70BD01AA109D01AB9200E0001D4
:1008E00001260150A4A8FED7A96E0101300E1927D8
:1008F0001951A4A8FED7A96E00011200EF5210E012
:10090000EACF1AF1E9CF19F1EF50A4A8FED7A96EEA
:100910001AC1EAFF19C1E9FFE92AD8B4EA2AEED7D9
:1009200037EF06F00101166B1651010814E3036A54
:100930001651CB0FE96E000E0320EA6EEF3C01D09A
:1009400008D0036A1651CB0FE96E000E0320EA6E41
:10095000EF2A162BE9D7295202E12A5203E0939A93
:100960008A8A02D0939A8A9A0001D051020805E23D
:10097000FF0A0AE1CF510E0807E3D051030807E34D
:1009800003E1CF51010803E393968A8602D0939640
:100990008A9648EF06F0F86AD09E078E0E01550E33
:1009A000A76EAA0EA76EFF910C0EF66F050ED16F03
:1009B000550EA76EAA0EA76EFF817E96190EB06E19
:1009C000A60EAD6E900EAC6E7C86220EAB6E000E47
:1009D0007D6EA60EA86E900E9C6E0101106B0F6BC3
:1009E000FF0E0F01486FC29CC29E4951E00B1F09C8
:1009F000496F070EB46E01010D910D930D9507D04F
:100A000002001900003340DA0001010E0000000E60
:100A1000F86E0A0EF76E000EF66E0900F550006EC5
:100A2000000A13E00900F550016EE8BE05D03F0B47
:100A3000EA6E0900F5CFE9FF01BC090001AC09002D
:100A4000F5CFEEFF004EE9D7F9D7F86A000108D5D7
:100A50000101156B146B15C113F114C112F1939AB6
:100A60008A9A93988A9893968A96600EF66E030EE9
:100A7000F76E110E196F00013ADD7E0EF66E030E51
:100A8000F76E4ADD730EF66E030EF76E0A0E010165
:100A9000196F00012CDD9D829D8AC00EF2120101AA
:100AA000116B0400142BD8B4152B0001D5A11FD055
:100AB000D591F29CF29EF2BEFDD720C026F01FC059
:100AC00025F022C028F021C027F024C02AF023C03E
:100AD00029F0206A1F6A22682168246A236AC00EEE
:100AE000F212D9D5880EF66E030EF76E15DDD5A37A
:100AF000CBD0D593980EF66E030EF76E0DDDAC0ECF
:100B0000F66E030EF76E090E0101196F0001EFDC9E
:100B1000100EE96E2AC017F129C016F141DEB80E99
:100B2000F66E030EF76E090E0101196F0001DFDC8E
:100B3000100EE96E26C017F125C016F131DEC40E85
:100B4000F66E030EF76E0D0E0101196F0001CFDC7A
:100B5000100EE96E28C017F127C016F121DED40E61
:100B6000F66E030EF76E030E0101196F0001BFDC74
:100B7000D80EF66E030EF76E090E0101196F000113
:100B8000B6DC100EE96ECEC017F1CDC016F108DE4E
:100B9000E40EF66E030EF76E0B0E0101196F0001E5
:100BA000A6DC100EE96ED0C017F1CFC016F1F8DD4B
:100BB000F20EF66E030EF76E0C0E0101196F0001B6
:100BC00096DC100EE96ED2C017F1D1C016F1E8DD47
:100BD000010EF66E040EF76E030E0101196F00018F
:100BE00086DC0101116B115101084DE3036A1151BB
:100BF000CB0FE96E000E0320EA6EEFCF16F1115114
:100C0000500DF350036A2B0F016E000E032201C03A
:100C100017F103C018F1060EF66E040EF76E180EEB
:100C2000196F000164DC11C119F11B0E01011A6F6B
:100C3000000125DE200EF66E040EF76E060E010191
:100C4000196F000154DC16C119F11B0E01011A6F56
:100C5000000115DE200EA4A8FED7A96E270EA4A8B9
:100C6000FED7A96E18C1EAFF17C1E9FF47D62C0EBF
:100C7000F66E040EF76E030E0101196F000137DCEA
:100C80000101112BB0D70001D5A502D0D5954AD6C8
:100C9000A4AA28D0A4AAFED7AACF11F10101122B31
:100CA000D8B4132B11516F0A00010BE0200A0CE09D
:100CB0003D0A0DE0200A0EE0350A0FE0200A10E0A0
:100CC00011D0939A8A9A0ED0939A8A8A0BD09398CD
:100CD0008A9808D093988A8805D093968A9602D0ED
:0A0CE00093968A860101DDD6FFD746
:083FF80000F41CFFFFF9CFF1FA
:00000001FF
;PIC18F24J11
;CRC=9805  CREATED="27-Jan-21 11:06"
