:040000002AEF04F0EF
:08000800046ED8CF05F0E0CF33
:1000100006F00001E9CF0CF0EACF07F0E1CF08F0DD
:10002000E2CF09F0D9CF0AF0DACF0BF0F3CF12F01C
:10003000F4CF13F0FACF14F0F5CF15F0F6CF16F099
:10004000F7CF17F000C00EF001C00FF002C010F0A3
:1000500003C011F09DA230EF00F09EB263EF00F0FC
:100060009DAA36EF00F09EBAB0EF00F0A3AA3CEFD5
:1000700000F0A4BAA7EF00F00EC000F00FC001F02E
:1000800010C002F011C003F00CC0E9FF07C0EAFF86
:10009000078E08C0E1FF09C0E2FF0AC0D9FF0BC00C
:1000A000DAFF12C0F3FF13C0F4FF14C0FAFF15C04B
:1000B000F5FF16C0F6FF17C0F7FF045006C0E0FFBB
:1000C00005C0D8FF100001010E2B0E51640804E199
:1000D0000E6B0001D78501013AA10CD00001D83D7B
:1000E00005D0D93D03D0010105D00001D82BD8B4EB
:1000F000D92B010193803A9381B03A833AB320D04F
:100100000FA11ED0232AD8B4242A0FA311D03A91CC
:10011000D9C020F0D8C01FF02050225C08E303E1D2
:1001200021501F5C04E220C022F01FC021F00F9379
:100130000FB306D00001D96BD86B01013A810F8350
:100140000F913AB30F819E9200013CEF00F0A4AAF8
:10015000FED7AACF3AF10101A49A00013CEF00F0CA
:1001600001010FB5AAD03CC13BF13DC13CF13EC1FC
:100170003DF13FC13EF140C13FF19EAAFED7AFCF56
:1001800040F13B512408D8A497D03E5147080CE1D8
:100190003F51470809E14051410806E1106B0F85C6
:1001A0000001D7810ED001013E51480809E13F51BD
:1001B000440806E14051540803E1010E106F0F8519
:1001C000000101010FA578D01051500DF350036AC2
:1001D0002B0FE96E000E0320EA6E3CC1EFFF1051B9
:1001E000500DF350036A0C0F416F000E0320426F55
:1001F000010E4125016E000E4221036E01501F0FBA
:10020000E96E000E0320EA6E3DC1EFFF1051500D64
:10021000F350036A0C0F416F000E0320426F020E71
:100220004125016E000E4221036E01501F0FE96E41
:10023000000E0320EA6E3EC1EFFF1051500DF35047
:10024000036A0C0F416F000E0320426F030E41251D
:10025000016E000E4221036E01501F0FE96E000E69
:100260000320EA6E3FC1EFFF1051500DF350036AB7
:100270000C0F416F000E0320426F040E4125016EEA
:10028000000E4221036E01501F0FE96E000E032085
:10029000EA6E40C1EFFF036A1051CB0FE96E000E0A
:1002A0000320EA6E050EEF6E036A1051CD0FE96E62
:1002B000000E0320EA6EEF6A46D09EAAFED7AFCFAB
:1002C0003AF13A510D0803E03A510A081DE10F9541
:1002D0001051500DF350036A0C0F416F000E0320B4
:1002E000426FCB0E4125016E000E4221036E01507C
:1002F0001F0FE96E000E0320EA6EEF6A102D03D087
:100300000001D78301011FD01051500DF350036A33
:100310000C0F416F000E0320426FCB0E4125016E82
:10032000000E4221036E01501F0FE96E000E0320E4
:10033000EA6E3AC1EFFF036A1051CB0FE96E000E6F
:100340000320EA6EEF2A9E9A00013CEF00F0232082
:10035000766563746F7257696E645854432028251C
:100360007329206F6E205854430D0A0032362D4AEF
:10037000616E2D3231002320676F74202478784716
:1003800047410D0A0000232066696E697368656441
:10039000202478784844540D0A0023207B636F752D
:1003A0006E743D256C752C20706572696F643D25F7
:1003B0006C752C206D696E5F706572696F643D2588
:1003C0006C757D0D0A0023207B696E7075743D2568
:1003D0006C752C20766572746963616C3D256C7553
:1003E0002C2077696E645F76616E653D256C757D46
:1003F0000D0A0000010EEA6E1B0EE96EEF5011E0CF
:10040000020E016EBF0E006E0400002EFDD7012EFD
:10041000F9D7960E006E002EFED700D00400EF2E06
:10042000EFD71200C150C00B0309C16EC18EC2804C
:10043000C18CC282C2B2FED7C19CF80E0F01486FB8
:10044000C28CC29E4951E00B1F09496FF80E486FDC
:100450007F0E496F000E0509CA6E310ECB6E0E0E6F
:1004600001011B6F0001C6DFD791D793D795206A92
:100470001F6A22682168246A236A87EF04F0090052
:10048000F6CF19F1F7CF1AF1F550A4A8FED7A96E4F
:1004900019C1F6FF1AC1F7FF0101182F01D002D0D0
:1004A0000001EDD7000112000900F5520DE0F6CF72
:1004B00018F1F7CF19F1F550A4A8FED7A96E18C10D
:1004C000F6FF19C1F7FFF0D71200D8B204D0010E21
:1004D000EA6E350EE96E006A016A026A036A01017A
:1004E000356B366B376B386B345133113211311138
:1004F0002CE0200E396FD8902D372E372F3730371C
:1005000035373637373738373451385D08E13351AE
:10051000375D05E13251365D02E13151355D0FE362
:100520003151355F3251D8A0323D365F3351D8A0BA
:10053000333D375F3451D8A0343D385FD880003622
:10054000013602360336392FD6D735C1EFFF36C113
:10055000ECFF37C1ECFF38C1ECFF000104EF03F002
:10056000D89001010C35036AEC0FE96E000E0320F0
:10057000EA6E1EC1ECFFED521DC1EFFF0C2B0C51BA
:100580000F0801E20C6B0D510F0801E30D2B266BD8
:10059000256B246B236B276B0D51275D14E2D890DC
:1005A0002735036AEC0FE96E000E0320EA6EECCFEC
:1005B00003F0ED52EF50232703502423000E252390
:1005C0002623272BE9D7D8900D31006E016A026AE5
:1005D000036A00502325296F015024212A6F0250FD
:1005E00025212B6F035026212C6FD892306F2BC101
:1005F0002FF12AC12EF129C12DF1346B336B326BEF
:100600000DC131F1000161D703C022F102C021F117
:1006100001C020F100C01FF101011FC101F020C184
:1006200002F000011200000E016EC250C30B011057
:10063000C26E010E01011B6F0001DCDE0101186BAF
:1006400018510F0818E3C282C2B2FED7C4CF02F01D
:10065000C3CF01F0C4CF1CF1C3CF1BF1C4CF1EF137
:10066000C3CF1DF100017CDF02C01AF101C019F1F6
:100670000101182BE5D71AC1D0F019C1CFF0040E33
:10068000016EC250C30B0110C26E010E1B6F000140
:10069000B1DE0101186B18510F0818E3C282C2B213
:1006A000FED7C4CF02F0C3CF01F0C4CF1CF1C3CF3B
:1006B0001BF1C4CF1EF1C3CF1DF1000151DF02C0F9
:1006C0001AF101C019F10101182BE5D71AC1D4F0B4
:1006D00019C1D3F0080E016EC250C30B0110C26ED7
:1006E000010E1B6F000186DE0101186B18510F0807
:1006F00018E3C282C2B2FED7C4CF02F0C3CF01F06A
:10070000C4CF1CF1C3CF1BF1C4CF1EF1C3CF1DF169
:10071000000126DF02C01AF101C019F10101182BF6
:10072000E5D71AC1D2F019C1D1F00001D6EF04F01B
:10073000EACF20F1E9CF1FF101011939F0091B6F50
:100740001B27E20F1C6F320F1E6F19510F0B1C2756
:100750001C271E27E90F1D6F1D271D2718390F0B9A
:100760001D271E271D371E371E1F1E3718510F0B42
:100770001E271B37070E1A6F0A0E1D071E27FDE3E3
:100780001C071D27FDE31B071C27FDE31A071B277A
:10079000FDE3010EEA6E1A0EE96E070E1F151F9D8E
:1007A000E926000EEA22E9501E0803E1EA2C01D0F6
:1007B0001F8DEF50006E08E11FBD06D01FB90CD091
:1007C0001FB702D0200E03D01F871F99300E0026BE
:1007D0000050A4A8FED7A96EEE501FADE4D70001CB
:1007E00012000101186B1851010814E3036A185133
:1007F000CD0FE96E000E0320EA6EEF3C01D008D069
:10080000036A1851CD0FE96E000E0320EA6EEF2A3D
:10081000182BE9D7295202E12A5203E0939A8A8AD7
:1008200002D0939A8A9A0001D251020805E2FF0A87
:100830000AE1D1510E0807E3D251030807E303E1AF
:10084000D151010803E393968A8602D093968A9643
:100850005EEF05F0F86AD09E078E0E01550EA76E6A
:10086000AA0EA76EFF910C0EF66F050ED16F550EF6
:10087000A76EAA0EA76EFF817E96190EB06EA60E09
:10088000AD6E900EAC6E7C86220EAB6E000E7D6E51
:10089000A60EA86E900E9C6E0101126B116BFF0EDE
:1008A0000F01486FC29CC29E4951E00B1F09496F5E
:1008B000070EB46E01010F910F930F9507D0020040
:1008C0001900003340DC000101100000000EF86E3A
:1008D000080EF76EBE0EF66E0900F550006E000AA7
:1008E00013E00900F550016EE8BE05D03F0BEA6E3B
:1008F0000900F5CFE9FF01BC090001AC0900F5CF03
:10090000EEFF004EE9D7F9D7F86A00018BD5010157
:10091000176B166B17C115F116C114F1939A8A9AC9
:1009200093988A9893968A964E0EF66E030EF76EFB
:10093000110E186F0001A3DD6C0EF66E030EF76E3C
:10094000B3DD610EF66E030EF76E0A0E0101186F2D
:10095000000195DD9D829D8AC00EF2120101136B8C
:100960000400162BD8B4172B0001CD51770802E2F2
:10097000CD6BD781D7A11FD0D791F29CF29EF2BE4A
:10098000FDD720C026F01FC025F022C028F021C0CE
:1009900027F024C02AF023C029F0206A1F6A2268A9
:1009A0002168246A236AC00EF2123DD6760EF66ED6
:1009B000030EF76E79DDCE517C0802E2CE6BD78351
:1009C000D7A378D0D793860EF66E030EF76E6CDD44
:1009D0009A0EF66E030EF76E090E0101186F0001F4
:1009E0004EDD100EE96E2AC019F129C018F1A0DE03
:1009F000A60EF66E030EF76E090E0101186F0001C8
:100A00003EDD100EE96E26C019F125C018F190DE0A
:100A1000B20EF66E030EF76E0D0E0101186F000197
:100A20002EDD100EE96E28C019F127C018F180DE06
:100A3000C20EF66E030EF76E030E0101186F000171
:100A40001EDDC60EF66E030EF76E090E0101186F5D
:100A5000000115DD100EE96ED0C019F1CFC018F1FC
:100A600067DED20EF66E030EF76E0B0E0101186FE5
:100A7000000105DD100EE96ED2C019F1D1C018F1E8
:100A800057DEE00EF66E030EF76E0C0E0101186FC6
:100A90000001F5DC100EE96ED4C019F1D3C018F1D5
:100AA00047DEEF0EF66E030EF76E030E0101186FB0
:100AB0000001E5DCD7A502D0D79593D6A4AA28D00B
:100AC000A4AAFED7AACF13F10101142BD8B4152B79
:100AD00013516F0A00010BE0200A0CE03D0A0DE003
:100AE000200A0EE0350A0FE0200A10E011D0939A98
:100AF0008A9A0ED0939A8A8A0BD093988A9808D0B3
:100B000093988A8805D093968A9602D093968A867F
:060B1000010126D7FFD70A
:083FF80000F41CFFFFF9CFF1FA
:00000001FF
;PIC18F24J11
;CRC=05E0  CREATED="26-Jan-21 17:55"
