:040000000FEF04F00A
:0800080065EF00F000000000AC
:100010000000000000000000046ED8CF05F0E0CF23
:1000200006F00001E9CF0CF0EACF07F0E1CF08F0CD
:10003000E2CF09F0D9CF0AF0DACF0BF0F3CF12F00C
:10004000F4CF13F0FACF14F0F5CF15F0F6CF16F089
:10005000F7CF17F000C00EF001C00FF002C010F093
:1000600003C011F09DAA38EF00F09EBA27EF01F00F
:10007000A3AA3EEF00F0A4BA15EF01F00EC000F005
:100080000FC001F010C002F011C003F00CC0E9FF76
:1000900007C0EAFF078E08C0E1FF09C0E2FF0AC0FF
:1000A000D9FF0BC0DAFF12C0F3FF13C0F4FF14C076
:1000B000FAFF15C0F5FF16C0F6FF17C0F7FF045092
:1000C00006C0E0FF05C0D8FF10000001E9CF1EF018
:1000D000EACF19F0E1CF1AF0E2CF1BF0D9CF1CF034
:1000E000DACF1DF0F3CF24F0F4CF25F0FACF26F0CD
:1000F000F5CF27F0F6CF28F0F7CF29F000C020F099
:1001000001C021F002C022F003C023F09DA28CEFB9
:1001100000F09EB2AEEF00F020C000F021C001F070
:1001200022C002F023C003F01EC0E9FF19C0EAFF9D
:10013000198E1AC0E1FF1BC0E2FF1CC0D9FF1DC011
:10014000DAFF24C0F3FF25C0F4FF26C0FAFF27C062
:10015000F5FF28C0F6FF29C0F7FF110002016D2B43
:100160006D51640804E16D6B010147890201A0A192
:100170000CD00101483D05D0493D03D0020105D016
:100180000101482BD8B4492B02019380A09381B080
:10019000A083A0B320D06EA11ED0362AD8B4372AAF
:1001A0006EA311D0A09149C133F048C132F0335051
:1001B000355C08E303E13450325C04E233C035F0CF
:1001C00032C034F06E936EB306D00101496B486BB8
:1001D0000201A0816E836E91A0B36E81010147A3DD
:1001E00014D0479333C039F032C038F035C03BF0FB
:1001F00034C03AF037C03DF036C03CF0336A326A62
:1002000035683468376A366A47859E9200018CEFFC
:1002100000F0A4AAFED79CCF31F0AACF01F031A202
:1002200002D09C989C8816EF01F0F3D701C09CF295
:10023000A49A3EEF00F09EAAFED7ACCF31F0AFCF2C
:1002400001F031A202D0AC98AC8828EF01F0F3D7CE
:1002500001C09CF202019C510D0818E09C510A0853
:1002600015E07551FB0812E3036A75514C0FE96EF6
:10027000010E0320EA6E9CC2EFFF752B036A7551D5
:100280004C0FE96E010E0320EA6EEF6A6EB526D0C0
:1002900070C26FF271C270F272C271F273C272F206
:1002A00074C273F29CC274F26F51240816E170514B
:1002B000470813E17151500810E1725148080DE1EF
:1002C000735144080AE17451540807E1010147835E
:1002D000476A02016E8593988A7831D09C510D0847
:1002E00003E09C510A082BE19C6B75519C5D19E25F
:1002F000480E9C25016E036AD8B0032A03C09EF203
:10030000036A9C514C0FE96E010E0320EA6EEFCF99
:100310009FF29EC2EAFF01C0E9FF9FC2EFFF9C2B44
:10032000E4D7480E9C25E96EEA6AD8B0EA2AEF6A5B
:1003300075C246F10101478702016E95756B9E9A61
:1003400000013EEF00F0020EEA6E7A0EE96EEF5009
:1003500011E00A0E016EBF0E006E0400002EFDD7E4
:10036000012EF9D75E0E006E002EFED700D00400DD
:10037000EF2EEFD71200C150C00B0309C16EC18E22
:10038000C280C18CC282C2B2FED7C19CF80E0F01DE
:10039000486FC28CC29E4951E00B1F09496FF80E8D
:1003A000486F7F0E496F000E0609CA6E310ECB6E84
:1003B0000E0E02017A6F0001C6DF010147934795D7
:1003C00047974799336A326A35683468376A366ABC
:1003D0004C6B02014A6B4768486A0101466B456AEB
:1003E000446A000173EF04F0D8B204D0020EEA6E42
:1003F000940EE96E006A016A026A036A0201946B54
:10040000956B966B976B93519211911190112CE013
:10041000200E986FD8908C378D378E378F37943762
:100420009537963797379351975D08E19251965DCE
:1004300005E19151955D02E19051945D0FE390517A
:10044000945F9151D8A0913D955F9251D8A0923D73
:10045000965F9351D8A0933D975FD88000360136C0
:1004600002360336982FD6D794C2EFFF95C2ECFF21
:1004700096C2ECFF97C2ECFF000193EF02F0D89018
:1004800002016B35036A4B0FE96E020E0320EA6E20
:100490007DC2ECFFED527CC2EFFF6B2B6B510F085E
:1004A00001E26B6B6C510F0801E36C2B856B846B65
:1004B000836B826B866B6C51865D14E2D8908635B7
:1004C000036A4B0FE96E020E0320EA6EECCF03F0D5
:1004D000ED52EF50822703508323000E842385239F
:1004E000862BE9D7D8906C31006E016A026A036AE4
:1004F00000508225886F01508321896F025084212A
:100500008A6F035085218B6FD8928F6F8AC28EF2CB
:1005100089C28DF288C28CF2936B926B916B6CC224
:1005200090F2000161D703C081F202C080F201C0E5
:100530007FF200C07EF202017EC201F07FC202F0B3
:1005400000011200000E016EC250C30B0110C26EFA
:10055000010E02017A6F0001F6DE0201776B77511E
:100560000F0818E3C282C2B2FED7C4CF02F0C3CFD5
:1005700001F0C4CF7BF2C3CF7AF2C4CF7DF2C3CFF8
:100580007CF200017CDF02C079F201C078F2020146
:10059000772BE5D779C23FF078C23EF0040E016EAA
:1005A000C250C30B0110C26E010E7A6F0001CBDE88
:1005B0000201776B77510F0818E3C282C2B2FED7EF
:1005C000C4CF02F0C3CF01F0C4CF7BF2C3CF7AF225
:1005D000C4CF7DF2C3CF7CF2000151DF02C079F2BB
:1005E00001C078F20201772BE5D779C243F078C2D7
:1005F00042F0080E016EC250C30B0110C26E010E14
:100600007A6F0001A0DE0201776B77510F0818E3C3
:10061000C282C2B2FED7C4CF02F0C3CF01F0C4CFB2
:100620007BF2C3CF7AF2C4CF7DF2C3CF7CF200015C
:1006300026DF02C079F201C078F20201772BE5D7FC
:1006400079C241F078C240F000018DEF04F0020160
:1006500098519807000A24E097C2EAFF9651962B1A
:10066000D8B4972BE96EEF50941B996B99510708FA
:1006700016E39451010B006E036A005003100AE068
:10068000D89095319B6F9431010A946F9B51A00AC9
:10069000956F03D0D89095339433992BE7D7D8D75B
:1006A00094C201F095C202F000011200A4A8FED786
:1006B000A96E1200180E01014625020F02018F6F6C
:1006C000906BD8B0902B230E776F520E786F040E7C
:1006D000796F0C0E7A6F7B69250E7C6F90C27DF26C
:1006E0008FC27EF245C07FF244C080F239C081F2F1
:1006F00038C082F23BC083F23AC084F23DC085F23A
:100700003CC086F23FC087F23EC088F241C089F209
:1007100040C08AF243C08BF242C08CF246C08DF2D8
:1007200047C08EF295699469020E976F780E966FA6
:10073000170E986F00018BDF02C092F201C091F298
:1007400092C295F291C294F20201976B480E966F95
:1007500046C198F200017BDF02C092F201C091F223
:100760000201936B935117080FE3036A9351770FBC
:10077000E96E020E0320EA6EEFCF94F2945100016D
:1007800095DF0201932BEED7936B010146510201D5
:10079000935D0EE2480E9325E96EEA6AD8B0EA2A24
:1007A000EFCF94F29451000181DF0201932BEDD73A
:1007B00092C294F29451000179DF91C294F2020145
:1007C0009451000173DF442AD8B4452A93EF04F012
:1007D000473C01D001D0472A463C01D001D0462AEF
:1007E0003C5202E13D5203E0939A8A8A02D0939AE6
:1007F0008A9A4150020805E2FF0A0AE140500E08B9
:1008000007E34150030807E303E14050010803E315
:1008100093968A8602D093968A969AEF04F0F86AA5
:100820009F829F9AA59AD08E078E0E01550EA76EB5
:10083000AA0EA76EFF910C0EF66F050ED16F550E26
:10084000A76EAA0EA76EFF81400E9B6ED36AD3508F
:10085000316A7E86A00EB06E010E7F6EA60EAD6E62
:10086000900EAC6E7C868A0EAB6E000E7D6EA60E70
:10087000A86E900E9C6EFF0E0F01486FC29CC29E28
:100880004951E00B1F09496F070EB46E02016E91CA
:100890006E936E9507D002002B000023424B000799
:1008A000426F0000000EF86E080EF76E960EF66EA0
:1008B0000900F550006E000A13E00900F550016EC2
:1008C000E8BE05D03F0BEA6E0900F5CFE9FF01BC99
:1008D000090001AC0900F5CFEEFF004EE9D7F9D7CA
:1008E000F86A000148D5939A8A9A93988A989396C1
:1008F0008A969D829D8AC00EF2120201766B0400D8
:100900004650770804E2010147834787020101014D
:1009100047A504D04795000115D6010147A705D08A
:1009200047970001C7D6466A010147A904D04799F5
:0C09300000014ED701010201E2D7FFD701
:083FF80000F41DFFFFF9CFF1F9
:00000001FF
;PIC18F24J11
;CRC=DB87  CREATED="01-Feb-21 18:28"
