:0400000016EF04F003
:0800080065EF00F000000000AC
:100010000000000000000000046ED8CF05F0E0CF23
:1000200006F00001E9CF0CF0EACF07F0E1CF08F0CD
:10003000E2CF09F0D9CF0AF0DACF0BF0F3CF12F00C
:10004000F4CF13F0FACF14F0F5CF15F0F6CF16F089
:10005000F7CF17F000C00EF001C00FF002C010F093
:1000600003C011F09DAA38EF00F09EBA27EF01F00F
:10007000A3AA3EEF00F0A4BA15EF01F00EC000F005
:100080000FC001F010C002F011C003F00CC0E9FF76
:1000900007C0EAFF078E08C0E1FF09C0E2FF0AC0FF
:1000A000D9FF0BC0DAFF12C0F3FF13C0F4FF14C076
:1000B000FAFF15C0F5FF16C0F6FF17C0F7FF045092
:1000C00006C0E0FF05C0D8FF10000001E9CF1EF018
:1000D000EACF19F0E1CF1AF0E2CF1BF0D9CF1CF034
:1000E000DACF1DF0F3CF24F0F4CF25F0FACF26F0CD
:1000F000F5CF27F0F6CF28F0F7CF29F000C020F099
:1001000001C021F002C022F003C023F09DA28CEFB9
:1001100000F09EB2AEEF00F020C000F021C001F070
:1001200022C002F023C003F01EC0E9FF19C0EAFF9D
:10013000198E1AC0E1FF1BC0E2FF1CC0D9FF1DC011
:10014000DAFF24C0F3FF25C0F4FF26C0FAFF27C062
:10015000F5FF28C0F6FF29C0F7FF110002016E2B42
:100160006E51640804E16E6B010148890201A1A18E
:100170000CD00101493D05D04A3D03D0020105D014
:100180000101492BD8B44A2B02019380A19381B07D
:10019000A183A1B320D06FA11ED0362AD8B4372AAC
:1001A0006FA311D0A1914AC133F049C132F033504D
:1001B000355C08E303E13450325C04E233C035F0CF
:1001C00032C034F06F936FB306D001014A6B496BB4
:1001D0000201A1816F836F91A1B36F81010148A3D7
:1001E00014D0489333C039F032C038F035C03BF0FA
:1001F00034C03AF037C03DF036C03CF0336A326A62
:1002000035683468376A366A48859E9200018CEFFB
:1002100000F0A4AAFED79CCF31F0AACF01F031A202
:1002200002D09C989C8816EF01F0F3D701C09DF294
:10023000A49A3EEF00F09EAAFED7ACCF31F0AFCF2C
:1002400001F031A202D0AC98AC8828EF01F0F3D7CE
:1002500001C09DF202019D510D0818E09D510A0850
:1002600015E07651FB0812E3036A76514D0FE96EF3
:10027000010E0320EA6E9DC2EFFF762B036A7651D2
:100280004D0FE96E010E0320EA6EEF6A6FB526D0BE
:1002900071C270F272C271F273C272F274C273F2FE
:1002A00075C274F29DC275F27051240816E1715145
:1002B000470813E17251500810E1735148080DE1ED
:1002C000745144080AE17551540807E1010148835B
:1002D000486A02016F8593988A7831D09D510D0844
:1002E00003E09D510A082BE19D6B76519D5D19E25B
:1002F000490E9D25016E036AD8B0032A03C09FF200
:10030000036A9D514D0FE96E010E0320EA6EEFCF97
:10031000A0F29FC2EAFF01C0E9FFA0C2EFFF9D2B40
:10032000E4D7490E9D25E96EEA6AD8B0EA2AEF6A59
:1003300076C247F10101488702016F95766B9E9A5C
:1003400000013EEF00F0020EEA6E7B0EE96EEF5008
:1003500011E00A0E016EBF0E006E0400002EFDD7E4
:10036000012EF9D75E0E006E002EFED700D00400DD
:10037000EF2EEFD71200C150C00B0309C16EC18E22
:10038000C280C18CC282C2B2FED7C19CF80E0F01DE
:10039000486FC28CC29E4951E00B1F09496FF80E8D
:1003A000486F7F0E496F000E0609CA6E310ECB6E84
:1003B0000E0E02017B6F0001C6DF010148934895D4
:1003C00048974899336A326A35683468376A366ABA
:1003D0004D6B02014B6B4868496A0101476B456AE6
:1003E000446A476800017AEF04F0D8B204D0020EE4
:1003F000EA6E950EE96E006A016A026A036A0201FA
:10040000956B966B976B986B945193119211911118
:100410002CE0200E996FD8908D378E378F3790371C
:1004200095379637973798379451985D08E19351EF
:10043000975D05E19251965D02E19151955D0FE363
:100440009151955F9251D8A0923D965F9351D8A05B
:10045000933D975F9451D8A0943D985FD880003623
:10046000013602360336992FD6D795C2EFFF96C2D2
:10047000ECFF97C2ECFF98C2ECFF000194EF02F092
:10048000D89002016C35036A4C0FE96E020E03200E
:10049000EA6E7EC2ECFFED527DC2EFFF6C2B6C5119
:1004A0000F0801E26C6B6D510F0801E36D2B866B39
:1004B000856B846B836B876B6D51875D14E2D8907D
:1004C0008735036A4C0FE96E020E0320EA6EECCF0B
:1004D00003F0ED52EF50832703508423000E852351
:1004E0008623872BE9D7D8906D31006E016A026AA6
:1004F000036A00508325896F015084218A6F02505E
:1005000085218B6F035086218C6FD892906F8BC2A0
:100510008FF28AC28EF289C28DF2946B936B926BCA
:100520006DC291F2000161D703C082F202C081F274
:1005300001C080F200C07FF202017FC201F080C2E0
:1005400002F000011200000E016EC250C30B011038
:10055000C26E010E02017B6F0001F5DE0201786BB5
:1005600078510F0818E3C282C2B2FED7C4CF02F09E
:10057000C3CF01F0C4CF7CF2C3CF7BF2C4CF7EF2F5
:10058000C3CF7DF200017CDF02C07AF201C079F2B4
:100590000201782BE5D77AC23FF079C23EF0040E13
:1005A000016EC250C30B0110C26E010E7B6F0001C1
:1005B000CADE0201786B78510F0818E3C282C2B21A
:1005C000FED7C4CF02F0C3CF01F0C4CF7CF2C3CFBB
:1005D0007BF2C4CF7EF2C3CF7DF2000151DF02C0B7
:1005E0007AF201C079F20201782BE5D77AC243F0A2
:1005F00079C242F0080E016EC250C30B0110C26EE8
:10060000010E7B6F00019FDE0201786B78510F08AD
:1006100018E3C282C2B2FED7C4CF02F0C3CF01F04A
:10062000C4CF7CF2C3CF7BF2C4CF7EF2C3CF7DF2C6
:10063000000126DF02C07AF201C079F20201782BB4
:10064000E5D77AC241F079C240F0000194EF04F09E
:10065000020199519907000A24E098C2EAFF9751D4
:10066000972BD8B4982BE96EEF50951B9A6B9A5143
:10067000070816E39551010B006E036A0050031042
:100680000AE0D89096319C6F9531010A956F9C5184
:10069000A00A966F03D0D890963395339A2BE7D75C
:1006A000D8D795C201F096C202F000011200A4A8AA
:1006B000FED7A96E1200180E01014725020F020194
:1006C000906F916BD8B0912B230E786F520E796F8B
:1006D000040E7A6F0E0E7B6F7C69250E7D6F91C2C2
:1006E0007EF290C27FF245C080F244C081F239C0F0
:1006F00082F238C083F23BC084F23AC085F23DC03A
:1007000086F23CC087F23FC088F23EC089F241C009
:100710008AF240C08BF243C08CF242C08DF246C0D8
:100720008EF248C08FF296699569020E986F790E25
:10073000976F170E996F00018BDF02C093F201C013
:1007400092F293C296F292C295F20201986B490E10
:10075000976F47C199F200017BDF02C093F201C09D
:1007600092F20201946B945117080FE3036A9451BB
:10077000780FE96E020E0320EA6EEFCF95F29551E5
:10078000000195DF0201942BEED7946B01014751D4
:100790000201945D0EE2490E9425E96EEA6AD8B032
:1007A000EA2AEFCF95F29551000181DF0201942BE7
:1007B000EDD793C295F29551000179DF92C295F27F
:1007C00002019551000173DF442AD8B4452A9EEFF7
:1007D00004F0475204E0473C01D001D04706483CB2
:1007E00001D001D0482A463C01D001D0462A3C52D3
:1007F00002E13D5203E0939A8A8A02D0939A8A9A40
:100800004150020805E2FF0A0AE140500E0807E3E2
:100810004150030807E303E14050010803E39396C6
:100820008A8602D093968A96A6EF04F0F86A9F8291
:100830009F9AA59AD08E078E0E01550EA76EAA0E0E
:10084000A76EFF910C0EF66F050ED16F550EA76EB9
:10085000AA0EA76EFF81400E9B6ED36AD350316AF9
:100860007E86A00EB06E010E7F6EA60EAD6E900E4F
:10087000AC6E7C868A0EAB6E000E7D6EA60EA86EE8
:10088000900E9C6EFF0E0F01486FC29CC29E495194
:10089000E00B1F09496F070EB46E02016F916F9351
:1008A0006F9507D002002B000023424C00074270D6
:1008B0000000000EF86E080EF76EA40EF66E09002A
:1008C000F550006E000A13E00900F550016EE8BE15
:1008D00005D03F0BEA6E0900F5CFE9FF01BC090026
:1008E00001AC0900F5CFEEFF004EE9D7F9D7F86A61
:1008F000000141D5939A8A9A93988A9893968A96FA
:100900009D829D8AC00EF2120201776B0400465050
:10091000770804E20101488348870201010148A5E4
:1009200004D0489500010FD6010148A703D048978D
:10093000140E476E475205E10001BDD6466A47686E
:10094000010148A904D04899000143D701010201DF
:04095000DDD7FFD719
:083FF80000F41DFFFFF9CFF1F9
:00000001FF
;PIC18F24J11
;CRC=C75E  CREATED="03-Feb-21 19:16"
